{
	"contracts/DonationVerifier.sol": {
		"DonationVerifier": {
			"abi": [
				{
					"anonymous": false,
					"inputs": [
						{
							"indexed": true,
							"internalType": "address",
							"name": "donor",
							"type": "address"
						},
						{
							"indexed": false,
							"internalType": "uint256",
							"name": "amount",
							"type": "uint256"
						},
						{
							"indexed": false,
							"internalType": "uint256",
							"name": "timestamp",
							"type": "uint256"
						}
					],
					"name": "DonationReceived",
					"type": "event"
				},
				{
					"anonymous": false,
					"inputs": [
						{
							"indexed": true,
							"internalType": "address",
							"name": "ngo",
							"type": "address"
						},
						{
							"indexed": false,
							"internalType": "uint256",
							"name": "amount",
							"type": "uint256"
						}
					],
					"name": "Withdrawal",
					"type": "event"
				},
				{
					"inputs": [
						{
							"internalType": "address",
							"name": "ngo",
							"type": "address"
						}
					],
					"name": "addNGO",
					"outputs": [],
					"stateMutability": "nonpayable",
					"type": "function"
				},
				{
					"inputs": [
						{
							"internalType": "address",
							"name": "",
							"type": "address"
						}
					],
					"name": "approvedNGOs",
					"outputs": [
						{
							"internalType": "bool",
							"name": "",
							"type": "bool"
						}
					],
					"stateMutability": "view",
					"type": "function"
				},
				{
					"inputs": [],
					"name": "donate",
					"outputs": [],
					"stateMutability": "payable",
					"type": "function"
				},
				{
					"inputs": [
						{
							"internalType": "uint256",
							"name": "",
							"type": "uint256"
						}
					],
					"name": "donations",
					"outputs": [
						{
							"internalType": "address",
							"name": "donor",
							"type": "address"
						},
						{
							"internalType": "uint256",
							"name": "amount",
							"type": "uint256"
						},
						{
							"internalType": "uint256",
							"name": "timestamp",
							"type": "uint256"
						}
					],
					"stateMutability": "view",
					"type": "function"
				},
				{
					"inputs": [
						{
							"internalType": "address",
							"name": "",
							"type": "address"
						}
					],
					"name": "donorData",
					"outputs": [
						{
							"internalType": "address",
							"name": "donor",
							"type": "address"
						},
						{
							"internalType": "uint256",
							"name": "totalDonated",
							"type": "uint256"
						},
						{
							"internalType": "uint256",
							"name": "donationsCount",
							"type": "uint256"
						}
					],
					"stateMutability": "view",
					"type": "function"
				},
				{
					"inputs": [],
					"name": "getBalance",
					"outputs": [
						{
							"internalType": "uint256",
							"name": "",
							"type": "uint256"
						}
					],
					"stateMutability": "view",
					"type": "function"
				},
				{
					"inputs": [
						{
							"internalType": "uint256",
							"name": "index",
							"type": "uint256"
						}
					],
					"name": "getDonation",
					"outputs": [
						{
							"internalType": "address",
							"name": "",
							"type": "address"
						},
						{
							"internalType": "uint256",
							"name": "",
							"type": "uint256"
						},
						{
							"internalType": "uint256",
							"name": "",
							"type": "uint256"
						}
					],
					"stateMutability": "view",
					"type": "function"
				},
				{
					"inputs": [],
					"name": "getDonationsCount",
					"outputs": [
						{
							"internalType": "uint256",
							"name": "",
							"type": "uint256"
						}
					],
					"stateMutability": "view",
					"type": "function"
				},
				{
					"inputs": [
						{
							"internalType": "address",
							"name": "_donor",
							"type": "address"
						}
					],
					"name": "getDonorInfo",
					"outputs": [
						{
							"internalType": "uint256",
							"name": "",
							"type": "uint256"
						},
						{
							"internalType": "uint256",
							"name": "",
							"type": "uint256"
						}
					],
					"stateMutability": "view",
					"type": "function"
				},
				{
					"inputs": [
						{
							"internalType": "address",
							"name": "ngo",
							"type": "address"
						}
					],
					"name": "isNGOApproved",
					"outputs": [
						{
							"internalType": "bool",
							"name": "",
							"type": "bool"
						}
					],
					"stateMutability": "view",
					"type": "function"
				},
				{
					"inputs": [],
					"name": "owner",
					"outputs": [
						{
							"internalType": "address",
							"name": "",
							"type": "address"
						}
					],
					"stateMutability": "view",
					"type": "function"
				},
				{
					"inputs": [
						{
							"internalType": "address",
							"name": "ngo",
							"type": "address"
						}
					],
					"name": "removeNGO",
					"outputs": [],
					"stateMutability": "nonpayable",
					"type": "function"
				},
				{
					"inputs": [],
					"name": "totalDonations",
					"outputs": [
						{
							"internalType": "uint256",
							"name": "",
							"type": "uint256"
						}
					],
					"stateMutability": "view",
					"type": "function"
				},
				{
					"inputs": [
						{
							"internalType": "uint256",
							"name": "amount",
							"type": "uint256"
						}
					],
					"name": "withdraw",
					"outputs": [],
					"stateMutability": "nonpayable",
					"type": "function"
				}
			],
			"devdoc": {
				"kind": "dev",
				"methods": {},
				"version": 1
			},
			"evm": {
				"assembly": "    /* \"contracts/DonationVerifier.sol\":169:1668  contract DonationVerifier is DonorRegistry, NGORegistry {... */\n  mstore(0x40, 0x80)\n  callvalue\n  dup1\n  iszero\n  tag_1\n  jumpi\n  0x00\n  dup1\n  revert\ntag_1:\n  pop\n    /* \"contracts/AccessControl.sol\":246:256  msg.sender */\n  caller\n    /* \"contracts/AccessControl.sol\":238:243  owner */\n  0x01\n  0x00\n    /* \"contracts/AccessControl.sol\":238:256  owner = msg.sender */\n  0x0100\n  exp\n  dup2\n  sload\n  dup2\n  0xffffffffffffffffffffffffffffffffffffffff\n  mul\n  not\n  and\n  swap1\n  dup4\n  0xffffffffffffffffffffffffffffffffffffffff\n  and\n  mul\n  or\n  swap1\n  sstore\n  pop\n    /* \"contracts/DonationVerifier.sol\":169:1668  contract DonationVerifier is DonorRegistry, NGORegistry {... */\n  dataSize(sub_0)\n  dup1\n  dataOffset(sub_0)\n  0x00\n  codecopy\n  0x00\n  return\nstop\n\nsub_0: assembly {\n        /* \"contracts/DonationVerifier.sol\":169:1668  contract DonationVerifier is DonorRegistry, NGORegistry {... */\n      mstore(0x40, 0x80)\n      jumpi(tag_1, lt(calldatasize, 0x04))\n      shr(0xe0, calldataload(0x00))\n      dup1\n      0xc46a60a5\n      gt\n      tag_16\n      jumpi\n      dup1\n      0xde2ed893\n      gt\n      tag_17\n      jumpi\n      dup1\n      0xde2ed893\n      eq\n      tag_12\n      jumpi\n      dup1\n      0xed88c68e\n      eq\n      tag_13\n      jumpi\n      dup1\n      0xef07a81f\n      eq\n      tag_14\n      jumpi\n      dup1\n      0xf8626af8\n      eq\n      tag_15\n      jumpi\n      jump(tag_1)\n    tag_17:\n      dup1\n      0xc46a60a5\n      eq\n      tag_9\n      jumpi\n      dup1\n      0xc93527d8\n      eq\n      tag_10\n      jumpi\n      dup1\n      0xd22c7f19\n      eq\n      tag_11\n      jumpi\n      jump(tag_1)\n    tag_16:\n      dup1\n      0x2e1a7d4d\n      gt\n      tag_18\n      jumpi\n      dup1\n      0x2e1a7d4d\n      eq\n      tag_5\n      jumpi\n      dup1\n      0x6de1587e\n      eq\n      tag_6\n      jumpi\n      dup1\n      0x8da5cb5b\n      eq\n      tag_7\n      jumpi\n      dup1\n      0xac4c7268\n      eq\n      tag_8\n      jumpi\n      jump(tag_1)\n    tag_18:\n      dup1\n      0x12065fe0\n      eq\n      tag_2\n      jumpi\n      dup1\n      0x2941b0c3\n      eq\n      tag_3\n      jumpi\n      dup1\n      0x2d5e40e2\n      eq\n      tag_4\n      jumpi\n    tag_1:\n      0x00\n      dup1\n      revert\n        /* \"contracts/DonationVerifier.sol\":1567:1666  function getBalance() external view returns (uint256) {... */\n    tag_2:\n      callvalue\n      dup1\n      iszero\n      tag_19\n      jumpi\n      0x00\n      dup1\n      revert\n    tag_19:\n      pop\n      tag_20\n      tag_21\n      jump\t// in\n    tag_20:\n      mload(0x40)\n      tag_22\n      swap2\n      swap1\n      tag_23\n      jump\t// in\n    tag_22:\n      mload(0x40)\n      dup1\n      swap2\n      sub\n      swap1\n      return\n        /* \"contracts/DonorRegistry.sol\":198:240  mapping(address => Donor) public donorData */\n    tag_3:\n      callvalue\n      dup1\n      iszero\n      tag_24\n      jumpi\n      0x00\n      dup1\n      revert\n    tag_24:\n      pop\n      tag_25\n      0x04\n      dup1\n      calldatasize\n      sub\n      dup2\n      add\n      swap1\n      tag_26\n      swap2\n      swap1\n      tag_27\n      jump\t// in\n    tag_26:\n      tag_28\n      jump\t// in\n    tag_25:\n      mload(0x40)\n      tag_29\n      swap4\n      swap3\n      swap2\n      swap1\n      tag_30\n      jump\t// in\n    tag_29:\n      mload(0x40)\n      dup1\n      swap2\n      sub\n      swap1\n      return\n        /* \"contracts/NGORegistry.sol\":378:482  function isNGOApproved(address ngo) public view returns (bool) {... */\n    tag_4:\n      callvalue\n      dup1\n      iszero\n      tag_31\n      jumpi\n      0x00\n      dup1\n      revert\n    tag_31:\n      pop\n      tag_32\n      0x04\n      dup1\n      calldatasize\n      sub\n      dup2\n      add\n      swap1\n      tag_33\n      swap2\n      swap1\n      tag_27\n      jump\t// in\n    tag_33:\n      tag_34\n      jump\t// in\n    tag_32:\n      mload(0x40)\n      tag_35\n      swap2\n      swap1\n      tag_36\n      jump\t// in\n    tag_35:\n      mload(0x40)\n      dup1\n      swap2\n      sub\n      swap1\n      return\n        /* \"contracts/DonationVerifier.sol\":923:1203  function withdraw(uint256 amount) external {... */\n    tag_5:\n      callvalue\n      dup1\n      iszero\n      tag_37\n      jumpi\n      0x00\n      dup1\n      revert\n    tag_37:\n      pop\n      tag_38\n      0x04\n      dup1\n      calldatasize\n      sub\n      dup2\n      add\n      swap1\n      tag_39\n      swap2\n      swap1\n      tag_40\n      jump\t// in\n    tag_39:\n      tag_41\n      jump\t// in\n    tag_38:\n      stop\n        /* \"contracts/NGORegistry.sol\":184:273  function addNGO(address ngo) external onlyOwner {... */\n    tag_6:\n      callvalue\n      dup1\n      iszero\n      tag_42\n      jumpi\n      0x00\n      dup1\n      revert\n    tag_42:\n      pop\n      tag_43\n      0x04\n      dup1\n      calldatasize\n      sub\n      dup2\n      add\n      swap1\n      tag_44\n      swap2\n      swap1\n      tag_27\n      jump\t// in\n    tag_44:\n      tag_45\n      jump\t// in\n    tag_43:\n      stop\n        /* \"contracts/AccessControl.sol\":87:107  address public owner */\n    tag_7:\n      callvalue\n      dup1\n      iszero\n      tag_46\n      jumpi\n      0x00\n      dup1\n      revert\n    tag_46:\n      pop\n      tag_47\n      tag_48\n      jump\t// in\n    tag_47:\n      mload(0x40)\n      tag_49\n      swap2\n      swap1\n      tag_50\n      jump\t// in\n    tag_49:\n      mload(0x40)\n      dup1\n      swap2\n      sub\n      swap1\n      return\n        /* \"contracts/NGORegistry.sol\":133:177  mapping(address => bool) public approvedNGOs */\n    tag_8:\n      callvalue\n      dup1\n      iszero\n      tag_51\n      jumpi\n      0x00\n      dup1\n      revert\n    tag_51:\n      pop\n      tag_52\n      0x04\n      dup1\n      calldatasize\n      sub\n      dup2\n      add\n      swap1\n      tag_53\n      swap2\n      swap1\n      tag_27\n      jump\t// in\n    tag_53:\n      tag_54\n      jump\t// in\n    tag_52:\n      mload(0x40)\n      tag_55\n      swap2\n      swap1\n      tag_36\n      jump\t// in\n    tag_55:\n      mload(0x40)\n      dup1\n      swap2\n      sub\n      swap1\n      return\n        /* \"contracts/DonorRegistry.sol\":461:642  function getDonorInfo(address _donor) external view returns (uint256, uint256) {... */\n    tag_9:\n      callvalue\n      dup1\n      iszero\n      tag_56\n      jumpi\n      0x00\n      dup1\n      revert\n    tag_56:\n      pop\n      tag_57\n      0x04\n      dup1\n      calldatasize\n      sub\n      dup2\n      add\n      swap1\n      tag_58\n      swap2\n      swap1\n      tag_27\n      jump\t// in\n    tag_58:\n      tag_59\n      jump\t// in\n    tag_57:\n      mload(0x40)\n      tag_60\n      swap3\n      swap2\n      swap1\n      tag_61\n      jump\t// in\n    tag_60:\n      mload(0x40)\n      dup1\n      swap2\n      sub\n      swap1\n      return\n        /* \"contracts/DonationVerifier.sol\":1209:1310  function getDonationsCount() external view returns (uint256) {... */\n    tag_10:\n      callvalue\n      dup1\n      iszero\n      tag_62\n      jumpi\n      0x00\n      dup1\n      revert\n    tag_62:\n      pop\n      tag_63\n      tag_64\n      jump\t// in\n    tag_63:\n      mload(0x40)\n      tag_65\n      swap2\n      swap1\n      tag_23\n      jump\t// in\n    tag_65:\n      mload(0x40)\n      dup1\n      swap2\n      sub\n      swap1\n      return\n        /* \"contracts/NGORegistry.sol\":279:372  function removeNGO(address ngo) external onlyOwner {... */\n    tag_11:\n      callvalue\n      dup1\n      iszero\n      tag_66\n      jumpi\n      0x00\n      dup1\n      revert\n    tag_66:\n      pop\n      tag_67\n      0x04\n      dup1\n      calldatasize\n      sub\n      dup2\n      add\n      swap1\n      tag_68\n      swap2\n      swap1\n      tag_27\n      jump\t// in\n    tag_68:\n      tag_69\n      jump\t// in\n    tag_67:\n      stop\n        /* \"contracts/DonationVerifier.sol\":397:426  uint256 public totalDonations */\n    tag_12:\n      callvalue\n      dup1\n      iszero\n      tag_70\n      jumpi\n      0x00\n      dup1\n      revert\n    tag_70:\n      pop\n      tag_71\n      tag_72\n      jump\t// in\n    tag_71:\n      mload(0x40)\n      tag_73\n      swap2\n      swap1\n      tag_23\n      jump\t// in\n    tag_73:\n      mload(0x40)\n      dup1\n      swap2\n      sub\n      swap1\n      return\n        /* \"contracts/DonationVerifier.sol\":579:917  function donate() external payable {... */\n    tag_13:\n      tag_74\n      tag_75\n      jump\t// in\n    tag_74:\n      stop\n        /* \"contracts/DonationVerifier.sol\":1316:1561  function getDonation(uint index) external view returns (address, uint256, uint256) {... */\n    tag_14:\n      callvalue\n      dup1\n      iszero\n      tag_76\n      jumpi\n      0x00\n      dup1\n      revert\n    tag_76:\n      pop\n      tag_77\n      0x04\n      dup1\n      calldatasize\n      sub\n      dup2\n      add\n      swap1\n      tag_78\n      swap2\n      swap1\n      tag_40\n      jump\t// in\n    tag_78:\n      tag_79\n      jump\t// in\n    tag_77:\n      mload(0x40)\n      tag_80\n      swap4\n      swap3\n      swap2\n      swap1\n      tag_30\n      jump\t// in\n    tag_80:\n      mload(0x40)\n      dup1\n      swap2\n      sub\n      swap1\n      return\n        /* \"contracts/DonationVerifier.sol\":364:391  Donation[] public donations */\n    tag_15:\n      callvalue\n      dup1\n      iszero\n      tag_81\n      jumpi\n      0x00\n      dup1\n      revert\n    tag_81:\n      pop\n      tag_82\n      0x04\n      dup1\n      calldatasize\n      sub\n      dup2\n      add\n      swap1\n      tag_83\n      swap2\n      swap1\n      tag_40\n      jump\t// in\n    tag_83:\n      tag_84\n      jump\t// in\n    tag_82:\n      mload(0x40)\n      tag_85\n      swap4\n      swap3\n      swap2\n      swap1\n      tag_30\n      jump\t// in\n    tag_85:\n      mload(0x40)\n      dup1\n      swap2\n      sub\n      swap1\n      return\n        /* \"contracts/DonationVerifier.sol\":1567:1666  function getBalance() external view returns (uint256) {... */\n    tag_21:\n        /* \"contracts/DonationVerifier.sol\":1612:1619  uint256 */\n      0x00\n        /* \"contracts/DonationVerifier.sol\":1638:1659  address(this).balance */\n      selfbalance\n        /* \"contracts/DonationVerifier.sol\":1631:1659  return address(this).balance */\n      swap1\n      pop\n        /* \"contracts/DonationVerifier.sol\":1567:1666  function getBalance() external view returns (uint256) {... */\n      swap1\n      jump\t// out\n        /* \"contracts/DonorRegistry.sol\":198:240  mapping(address => Donor) public donorData */\n    tag_28:\n      mstore(0x20, 0x00)\n      dup1\n      0x00\n      mstore\n      keccak256(0x00, 0x40)\n      0x00\n      swap2\n      pop\n      swap1\n      pop\n      dup1\n      0x00\n      add\n      0x00\n      swap1\n      sload\n      swap1\n      0x0100\n      exp\n      swap1\n      div\n      0xffffffffffffffffffffffffffffffffffffffff\n      and\n      swap1\n      dup1\n      0x01\n      add\n      sload\n      swap1\n      dup1\n      0x02\n      add\n      sload\n      swap1\n      pop\n      dup4\n      jump\t// out\n        /* \"contracts/NGORegistry.sol\":378:482  function isNGOApproved(address ngo) public view returns (bool) {... */\n    tag_34:\n        /* \"contracts/NGORegistry.sol\":435:439  bool */\n      0x00\n        /* \"contracts/NGORegistry.sol\":458:470  approvedNGOs */\n      0x02\n        /* \"contracts/NGORegistry.sol\":458:475  approvedNGOs[ngo] */\n      0x00\n        /* \"contracts/NGORegistry.sol\":471:474  ngo */\n      dup4\n        /* \"contracts/NGORegistry.sol\":458:475  approvedNGOs[ngo] */\n      0xffffffffffffffffffffffffffffffffffffffff\n      and\n      0xffffffffffffffffffffffffffffffffffffffff\n      and\n      dup2\n      mstore\n      0x20\n      add\n      swap1\n      dup2\n      mstore\n      0x20\n      add\n      0x00\n      keccak256\n      0x00\n      swap1\n      sload\n      swap1\n      0x0100\n      exp\n      swap1\n      div\n      0xff\n      and\n        /* \"contracts/NGORegistry.sol\":451:475  return approvedNGOs[ngo] */\n      swap1\n      pop\n        /* \"contracts/NGORegistry.sol\":378:482  function isNGOApproved(address ngo) public view returns (bool) {... */\n      swap2\n      swap1\n      pop\n      jump\t// out\n        /* \"contracts/DonationVerifier.sol\":923:1203  function withdraw(uint256 amount) external {... */\n    tag_41:\n        /* \"contracts/DonationVerifier.sol\":984:1009  isNGOApproved(msg.sender) */\n      tag_89\n        /* \"contracts/DonationVerifier.sol\":998:1008  msg.sender */\n      caller\n        /* \"contracts/DonationVerifier.sol\":984:997  isNGOApproved */\n      tag_34\n        /* \"contracts/DonationVerifier.sol\":984:1009  isNGOApproved(msg.sender) */\n      jump\t// in\n    tag_89:\n        /* \"contracts/DonationVerifier.sol\":976:1030  require(isNGOApproved(msg.sender), \"NGO not approved\") */\n      tag_90\n      jumpi\n      mload(0x40)\n      0x08c379a000000000000000000000000000000000000000000000000000000000\n      dup2\n      mstore\n      0x04\n      add\n      tag_91\n      swap1\n      tag_92\n      jump\t// in\n    tag_91:\n      mload(0x40)\n      dup1\n      swap2\n      sub\n      swap1\n      revert\n    tag_90:\n        /* \"contracts/DonationVerifier.sol\":1058:1079  address(this).balance */\n      selfbalance\n        /* \"contracts/DonationVerifier.sol\":1048:1054  amount */\n      dup2\n        /* \"contracts/DonationVerifier.sol\":1048:1079  amount <= address(this).balance */\n      gt\n      iszero\n        /* \"contracts/DonationVerifier.sol\":1040:1104  require(amount <= address(this).balance, \"Insufficient balance\") */\n      tag_93\n      jumpi\n      mload(0x40)\n      0x08c379a000000000000000000000000000000000000000000000000000000000\n      dup2\n      mstore\n      0x04\n      add\n      tag_94\n      swap1\n      tag_95\n      jump\t// in\n    tag_94:\n      mload(0x40)\n      dup1\n      swap2\n      sub\n      swap1\n      revert\n    tag_93:\n        /* \"contracts/DonationVerifier.sol\":1123:1133  msg.sender */\n      caller\n        /* \"contracts/DonationVerifier.sol\":1115:1143  payable(msg.sender).transfer */\n      0xffffffffffffffffffffffffffffffffffffffff\n      and\n        /* \"contracts/DonationVerifier.sol\":1115:1151  payable(msg.sender).transfer(amount) */\n      0x08fc\n        /* \"contracts/DonationVerifier.sol\":1144:1150  amount */\n      dup3\n        /* \"contracts/DonationVerifier.sol\":1115:1151  payable(msg.sender).transfer(amount) */\n      swap1\n      dup2\n      iszero\n      mul\n      swap1\n      mload(0x40)\n      0x00\n      mload(0x40)\n      dup1\n      dup4\n      sub\n      dup2\n      dup6\n      dup9\n      dup9\n      call\n      swap4\n      pop\n      pop\n      pop\n      pop\n      iszero\n      dup1\n      iszero\n      tag_97\n      jumpi\n      returndatasize\n      0x00\n      dup1\n      returndatacopy\n      revert(0x00, returndatasize)\n    tag_97:\n      pop\n        /* \"contracts/DonationVerifier.sol\":1177:1187  msg.sender */\n      caller\n        /* \"contracts/DonationVerifier.sol\":1166:1196  Withdrawal(msg.sender, amount) */\n      0xffffffffffffffffffffffffffffffffffffffff\n      and\n      0x7fcf532c15f0a6db0bd6d0e038bea71d30d808c7d98cb3bf7268a95bf5081b65\n        /* \"contracts/DonationVerifier.sol\":1189:1195  amount */\n      dup3\n        /* \"contracts/DonationVerifier.sol\":1166:1196  Withdrawal(msg.sender, amount) */\n      mload(0x40)\n      tag_98\n      swap2\n      swap1\n      tag_23\n      jump\t// in\n    tag_98:\n      mload(0x40)\n      dup1\n      swap2\n      sub\n      swap1\n      log2\n        /* \"contracts/DonationVerifier.sol\":923:1203  function withdraw(uint256 amount) external {... */\n      pop\n      jump\t// out\n        /* \"contracts/NGORegistry.sol\":184:273  function addNGO(address ngo) external onlyOwner {... */\n    tag_45:\n        /* \"contracts/AccessControl.sol\":167:172  owner */\n      0x01\n      0x00\n      swap1\n      sload\n      swap1\n      0x0100\n      exp\n      swap1\n      div\n      0xffffffffffffffffffffffffffffffffffffffff\n      and\n        /* \"contracts/AccessControl.sol\":153:172  msg.sender == owner */\n      0xffffffffffffffffffffffffffffffffffffffff\n      and\n        /* \"contracts/AccessControl.sol\":153:163  msg.sender */\n      caller\n        /* \"contracts/AccessControl.sol\":153:172  msg.sender == owner */\n      0xffffffffffffffffffffffffffffffffffffffff\n      and\n      eq\n        /* \"contracts/AccessControl.sol\":145:190  require(msg.sender == owner, \"Not the owner\") */\n      tag_100\n      jumpi\n      mload(0x40)\n      0x08c379a000000000000000000000000000000000000000000000000000000000\n      dup2\n      mstore\n      0x04\n      add\n      tag_101\n      swap1\n      tag_102\n      jump\t// in\n    tag_101:\n      mload(0x40)\n      dup1\n      swap2\n      sub\n      swap1\n      revert\n    tag_100:\n        /* \"contracts/NGORegistry.sol\":262:266  true */\n      0x01\n        /* \"contracts/NGORegistry.sol\":242:254  approvedNGOs */\n      0x02\n        /* \"contracts/NGORegistry.sol\":242:259  approvedNGOs[ngo] */\n      0x00\n        /* \"contracts/NGORegistry.sol\":255:258  ngo */\n      dup4\n        /* \"contracts/NGORegistry.sol\":242:259  approvedNGOs[ngo] */\n      0xffffffffffffffffffffffffffffffffffffffff\n      and\n      0xffffffffffffffffffffffffffffffffffffffff\n      and\n      dup2\n      mstore\n      0x20\n      add\n      swap1\n      dup2\n      mstore\n      0x20\n      add\n      0x00\n      keccak256\n      0x00\n        /* \"contracts/NGORegistry.sol\":242:266  approvedNGOs[ngo] = true */\n      0x0100\n      exp\n      dup2\n      sload\n      dup2\n      0xff\n      mul\n      not\n      and\n      swap1\n      dup4\n      iszero\n      iszero\n      mul\n      or\n      swap1\n      sstore\n      pop\n        /* \"contracts/NGORegistry.sol\":184:273  function addNGO(address ngo) external onlyOwner {... */\n      pop\n      jump\t// out\n        /* \"contracts/AccessControl.sol\":87:107  address public owner */\n    tag_48:\n      0x01\n      0x00\n      swap1\n      sload\n      swap1\n      0x0100\n      exp\n      swap1\n      div\n      0xffffffffffffffffffffffffffffffffffffffff\n      and\n      dup2\n      jump\t// out\n        /* \"contracts/NGORegistry.sol\":133:177  mapping(address => bool) public approvedNGOs */\n    tag_54:\n      mstore(0x20, 0x02)\n      dup1\n      0x00\n      mstore\n      keccak256(0x00, 0x40)\n      0x00\n      swap2\n      pop\n      sload\n      swap1\n      0x0100\n      exp\n      swap1\n      div\n      0xff\n      and\n      dup2\n      jump\t// out\n        /* \"contracts/DonorRegistry.sol\":461:642  function getDonorInfo(address _donor) external view returns (uint256, uint256) {... */\n    tag_59:\n        /* \"contracts/DonorRegistry.sol\":522:529  uint256 */\n      0x00\n        /* \"contracts/DonorRegistry.sol\":531:538  uint256 */\n      dup1\n        /* \"contracts/DonorRegistry.sol\":550:564  Donor memory d */\n      0x00\n        /* \"contracts/DonorRegistry.sol\":567:576  donorData */\n      dup1\n        /* \"contracts/DonorRegistry.sol\":567:584  donorData[_donor] */\n      0x00\n        /* \"contracts/DonorRegistry.sol\":577:583  _donor */\n      dup6\n        /* \"contracts/DonorRegistry.sol\":567:584  donorData[_donor] */\n      0xffffffffffffffffffffffffffffffffffffffff\n      and\n      0xffffffffffffffffffffffffffffffffffffffff\n      and\n      dup2\n      mstore\n      0x20\n      add\n      swap1\n      dup2\n      mstore\n      0x20\n      add\n      0x00\n      keccak256\n        /* \"contracts/DonorRegistry.sol\":550:584  Donor memory d = donorData[_donor] */\n      mload(0x40)\n      dup1\n      0x60\n      add\n      0x40\n      mstore\n      swap1\n      dup2\n      0x00\n      dup3\n      add\n      0x00\n      swap1\n      sload\n      swap1\n      0x0100\n      exp\n      swap1\n      div\n      0xffffffffffffffffffffffffffffffffffffffff\n      and\n      0xffffffffffffffffffffffffffffffffffffffff\n      and\n      0xffffffffffffffffffffffffffffffffffffffff\n      and\n      dup2\n      mstore\n      0x20\n      add\n      0x01\n      dup3\n      add\n      sload\n      dup2\n      mstore\n      0x20\n      add\n      0x02\n      dup3\n      add\n      sload\n      dup2\n      mstore\n      pop\n      pop\n      swap1\n      pop\n        /* \"contracts/DonorRegistry.sol\":602:603  d */\n      dup1\n        /* \"contracts/DonorRegistry.sol\":602:616  d.totalDonated */\n      0x20\n      add\n      mload\n        /* \"contracts/DonorRegistry.sol\":618:619  d */\n      dup2\n        /* \"contracts/DonorRegistry.sol\":618:634  d.donationsCount */\n      0x40\n      add\n      mload\n        /* \"contracts/DonorRegistry.sol\":594:635  return (d.totalDonated, d.donationsCount) */\n      swap3\n      pop\n      swap3\n      pop\n      pop\n        /* \"contracts/DonorRegistry.sol\":461:642  function getDonorInfo(address _donor) external view returns (uint256, uint256) {... */\n      swap2\n      pop\n      swap2\n      jump\t// out\n        /* \"contracts/DonationVerifier.sol\":1209:1310  function getDonationsCount() external view returns (uint256) {... */\n    tag_64:\n        /* \"contracts/DonationVerifier.sol\":1261:1268  uint256 */\n      0x00\n        /* \"contracts/DonationVerifier.sol\":1287:1296  donations */\n      0x03\n        /* \"contracts/DonationVerifier.sol\":1287:1303  donations.length */\n      dup1\n      sload\n      swap1\n      pop\n        /* \"contracts/DonationVerifier.sol\":1280:1303  return donations.length */\n      swap1\n      pop\n        /* \"contracts/DonationVerifier.sol\":1209:1310  function getDonationsCount() external view returns (uint256) {... */\n      swap1\n      jump\t// out\n        /* \"contracts/NGORegistry.sol\":279:372  function removeNGO(address ngo) external onlyOwner {... */\n    tag_69:\n        /* \"contracts/AccessControl.sol\":167:172  owner */\n      0x01\n      0x00\n      swap1\n      sload\n      swap1\n      0x0100\n      exp\n      swap1\n      div\n      0xffffffffffffffffffffffffffffffffffffffff\n      and\n        /* \"contracts/AccessControl.sol\":153:172  msg.sender == owner */\n      0xffffffffffffffffffffffffffffffffffffffff\n      and\n        /* \"contracts/AccessControl.sol\":153:163  msg.sender */\n      caller\n        /* \"contracts/AccessControl.sol\":153:172  msg.sender == owner */\n      0xffffffffffffffffffffffffffffffffffffffff\n      and\n      eq\n        /* \"contracts/AccessControl.sol\":145:190  require(msg.sender == owner, \"Not the owner\") */\n      tag_107\n      jumpi\n      mload(0x40)\n      0x08c379a000000000000000000000000000000000000000000000000000000000\n      dup2\n      mstore\n      0x04\n      add\n      tag_108\n      swap1\n      tag_102\n      jump\t// in\n    tag_108:\n      mload(0x40)\n      dup1\n      swap2\n      sub\n      swap1\n      revert\n    tag_107:\n        /* \"contracts/NGORegistry.sol\":360:365  false */\n      0x00\n        /* \"contracts/NGORegistry.sol\":340:352  approvedNGOs */\n      0x02\n        /* \"contracts/NGORegistry.sol\":340:357  approvedNGOs[ngo] */\n      0x00\n        /* \"contracts/NGORegistry.sol\":353:356  ngo */\n      dup4\n        /* \"contracts/NGORegistry.sol\":340:357  approvedNGOs[ngo] */\n      0xffffffffffffffffffffffffffffffffffffffff\n      and\n      0xffffffffffffffffffffffffffffffffffffffff\n      and\n      dup2\n      mstore\n      0x20\n      add\n      swap1\n      dup2\n      mstore\n      0x20\n      add\n      0x00\n      keccak256\n      0x00\n        /* \"contracts/NGORegistry.sol\":340:365  approvedNGOs[ngo] = false */\n      0x0100\n      exp\n      dup2\n      sload\n      dup2\n      0xff\n      mul\n      not\n      and\n      swap1\n      dup4\n      iszero\n      iszero\n      mul\n      or\n      swap1\n      sstore\n      pop\n        /* \"contracts/NGORegistry.sol\":279:372  function removeNGO(address ngo) external onlyOwner {... */\n      pop\n      jump\t// out\n        /* \"contracts/DonationVerifier.sol\":397:426  uint256 public totalDonations */\n    tag_72:\n      sload(0x04)\n      dup2\n      jump\t// out\n        /* \"contracts/DonationVerifier.sol\":579:917  function donate() external payable {... */\n    tag_75:\n        /* \"contracts/DonationVerifier.sol\":644:645  0 */\n      0x00\n        /* \"contracts/DonationVerifier.sol\":632:641  msg.value */\n      callvalue\n        /* \"contracts/DonationVerifier.sol\":632:645  msg.value > 0 */\n      gt\n        /* \"contracts/DonationVerifier.sol\":624:681  require(msg.value > 0, \"Donation must be greater than 0\") */\n      tag_111\n      jumpi\n      mload(0x40)\n      0x08c379a000000000000000000000000000000000000000000000000000000000\n      dup2\n      mstore\n      0x04\n      add\n      tag_112\n      swap1\n      tag_113\n      jump\t// in\n    tag_112:\n      mload(0x40)\n      dup1\n      swap2\n      sub\n      swap1\n      revert\n    tag_111:\n        /* \"contracts/DonationVerifier.sol\":692:701  donations */\n      0x03\n        /* \"contracts/DonationVerifier.sol\":707:755  Donation(msg.sender, msg.value, block.timestamp) */\n      mload(0x40)\n      dup1\n      0x60\n      add\n      0x40\n      mstore\n      dup1\n        /* \"contracts/DonationVerifier.sol\":716:726  msg.sender */\n      caller\n        /* \"contracts/DonationVerifier.sol\":707:755  Donation(msg.sender, msg.value, block.timestamp) */\n      0xffffffffffffffffffffffffffffffffffffffff\n      and\n      dup2\n      mstore\n      0x20\n      add\n        /* \"contracts/DonationVerifier.sol\":728:737  msg.value */\n      callvalue\n        /* \"contracts/DonationVerifier.sol\":707:755  Donation(msg.sender, msg.value, block.timestamp) */\n      dup2\n      mstore\n      0x20\n      add\n        /* \"contracts/DonationVerifier.sol\":739:754  block.timestamp */\n      timestamp\n        /* \"contracts/DonationVerifier.sol\":707:755  Donation(msg.sender, msg.value, block.timestamp) */\n      dup2\n      mstore\n      pop\n        /* \"contracts/DonationVerifier.sol\":692:756  donations.push(Donation(msg.sender, msg.value, block.timestamp)) */\n      swap1\n      dup1\n      0x01\n      dup2\n      sload\n      add\n      dup1\n      dup3\n      sstore\n      dup1\n      swap2\n      pop\n      pop\n      0x01\n      swap1\n      sub\n      swap1\n      0x00\n      mstore\n      keccak256(0x00, 0x20)\n      swap1\n      0x03\n      mul\n      add\n      0x00\n      swap1\n      swap2\n      swap1\n      swap2\n      swap1\n      swap2\n      pop\n      0x00\n      dup3\n      add\n      mload\n      dup2\n      0x00\n      add\n      exp(0x0100, 0x00)\n      dup2\n      sload\n      dup2\n      0xffffffffffffffffffffffffffffffffffffffff\n      mul\n      not\n      and\n      swap1\n      dup4\n      0xffffffffffffffffffffffffffffffffffffffff\n      and\n      mul\n      or\n      swap1\n      sstore\n      pop\n      0x20\n      dup3\n      add\n      mload\n      dup2\n      0x01\n      add\n      sstore\n      0x40\n      dup3\n      add\n      mload\n      dup2\n      0x02\n      add\n      sstore\n      pop\n      pop\n        /* \"contracts/DonationVerifier.sol\":784:793  msg.value */\n      callvalue\n        /* \"contracts/DonationVerifier.sol\":766:780  totalDonations */\n      0x04\n      0x00\n        /* \"contracts/DonationVerifier.sol\":766:793  totalDonations += msg.value */\n      dup3\n      dup3\n      sload\n      tag_115\n      swap2\n      swap1\n      tag_116\n      jump\t// in\n    tag_115:\n      swap3\n      pop\n      pop\n      dup2\n      swap1\n      sstore\n      pop\n        /* \"contracts/DonationVerifier.sol\":804:838  updateDonor(msg.sender, msg.value) */\n      tag_117\n        /* \"contracts/DonationVerifier.sol\":816:826  msg.sender */\n      caller\n        /* \"contracts/DonationVerifier.sol\":828:837  msg.value */\n      callvalue\n        /* \"contracts/DonationVerifier.sol\":804:815  updateDonor */\n      tag_118\n        /* \"contracts/DonationVerifier.sol\":804:838  updateDonor(msg.sender, msg.value) */\n      jump\t// in\n    tag_117:\n        /* \"contracts/DonationVerifier.sol\":871:881  msg.sender */\n      caller\n        /* \"contracts/DonationVerifier.sol\":854:910  DonationReceived(msg.sender, msg.value, block.timestamp) */\n      0xffffffffffffffffffffffffffffffffffffffff\n      and\n      0x4b0304ab2f313234b1cea012339c8f8c3bf2c8bb357d81a579cfdb35d2e3d030\n        /* \"contracts/DonationVerifier.sol\":883:892  msg.value */\n      callvalue\n        /* \"contracts/DonationVerifier.sol\":894:909  block.timestamp */\n      timestamp\n        /* \"contracts/DonationVerifier.sol\":854:910  DonationReceived(msg.sender, msg.value, block.timestamp) */\n      mload(0x40)\n      tag_119\n      swap3\n      swap2\n      swap1\n      tag_61\n      jump\t// in\n    tag_119:\n      mload(0x40)\n      dup1\n      swap2\n      sub\n      swap1\n      log2\n        /* \"contracts/DonationVerifier.sol\":579:917  function donate() external payable {... */\n      jump\t// out\n        /* \"contracts/DonationVerifier.sol\":1316:1561  function getDonation(uint index) external view returns (address, uint256, uint256) {... */\n    tag_79:\n        /* \"contracts/DonationVerifier.sol\":1372:1379  address */\n      0x00\n        /* \"contracts/DonationVerifier.sol\":1381:1388  uint256 */\n      dup1\n        /* \"contracts/DonationVerifier.sol\":1390:1397  uint256 */\n      0x00\n        /* \"contracts/DonationVerifier.sol\":1425:1434  donations */\n      0x03\n        /* \"contracts/DonationVerifier.sol\":1425:1441  donations.length */\n      dup1\n      sload\n      swap1\n      pop\n        /* \"contracts/DonationVerifier.sol\":1417:1422  index */\n      dup5\n        /* \"contracts/DonationVerifier.sol\":1417:1441  index < donations.length */\n      lt\n        /* \"contracts/DonationVerifier.sol\":1409:1459  require(index < donations.length, \"Invalid index\") */\n      tag_121\n      jumpi\n      mload(0x40)\n      0x08c379a000000000000000000000000000000000000000000000000000000000\n      dup2\n      mstore\n      0x04\n      add\n      tag_122\n      swap1\n      tag_123\n      jump\t// in\n    tag_122:\n      mload(0x40)\n      dup1\n      swap2\n      sub\n      swap1\n      revert\n    tag_121:\n        /* \"contracts/DonationVerifier.sol\":1469:1486  Donation memory d */\n      0x00\n        /* \"contracts/DonationVerifier.sol\":1489:1498  donations */\n      0x03\n        /* \"contracts/DonationVerifier.sol\":1499:1504  index */\n      dup6\n        /* \"contracts/DonationVerifier.sol\":1489:1505  donations[index] */\n      dup2\n      sload\n      dup2\n      lt\n      tag_124\n      jumpi\n      tag_125\n      tag_126\n      jump\t// in\n    tag_125:\n    tag_124:\n      swap1\n      0x00\n      mstore\n      keccak256(0x00, 0x20)\n      swap1\n      0x03\n      mul\n      add\n        /* \"contracts/DonationVerifier.sol\":1469:1505  Donation memory d = donations[index] */\n      mload(0x40)\n      dup1\n      0x60\n      add\n      0x40\n      mstore\n      swap1\n      dup2\n      0x00\n      dup3\n      add\n      0x00\n      swap1\n      sload\n      swap1\n      0x0100\n      exp\n      swap1\n      div\n      0xffffffffffffffffffffffffffffffffffffffff\n      and\n      0xffffffffffffffffffffffffffffffffffffffff\n      and\n      0xffffffffffffffffffffffffffffffffffffffff\n      and\n      dup2\n      mstore\n      0x20\n      add\n      0x01\n      dup3\n      add\n      sload\n      dup2\n      mstore\n      0x20\n      add\n      0x02\n      dup3\n      add\n      sload\n      dup2\n      mstore\n      pop\n      pop\n      swap1\n      pop\n        /* \"contracts/DonationVerifier.sol\":1523:1524  d */\n      dup1\n        /* \"contracts/DonationVerifier.sol\":1523:1530  d.donor */\n      0x00\n      add\n      mload\n        /* \"contracts/DonationVerifier.sol\":1532:1533  d */\n      dup2\n        /* \"contracts/DonationVerifier.sol\":1532:1540  d.amount */\n      0x20\n      add\n      mload\n        /* \"contracts/DonationVerifier.sol\":1542:1543  d */\n      dup3\n        /* \"contracts/DonationVerifier.sol\":1542:1553  d.timestamp */\n      0x40\n      add\n      mload\n        /* \"contracts/DonationVerifier.sol\":1515:1554  return (d.donor, d.amount, d.timestamp) */\n      swap4\n      pop\n      swap4\n      pop\n      swap4\n      pop\n      pop\n        /* \"contracts/DonationVerifier.sol\":1316:1561  function getDonation(uint index) external view returns (address, uint256, uint256) {... */\n      swap2\n      swap4\n      swap1\n      swap3\n      pop\n      jump\t// out\n        /* \"contracts/DonationVerifier.sol\":364:391  Donation[] public donations */\n    tag_84:\n      0x03\n      dup2\n      dup2\n      sload\n      dup2\n      lt\n      tag_128\n      jumpi\n      0x00\n      dup1\n      revert\n    tag_128:\n      swap1\n      0x00\n      mstore\n      keccak256(0x00, 0x20)\n      swap1\n      0x03\n      mul\n      add\n      0x00\n      swap2\n      pop\n      swap1\n      pop\n      dup1\n      0x00\n      add\n      0x00\n      swap1\n      sload\n      swap1\n      0x0100\n      exp\n      swap1\n      div\n      0xffffffffffffffffffffffffffffffffffffffff\n      and\n      swap1\n      dup1\n      0x01\n      add\n      sload\n      swap1\n      dup1\n      0x02\n      add\n      sload\n      swap1\n      pop\n      dup4\n      jump\t// out\n        /* \"contracts/DonorRegistry.sol\":247:455  function updateDonor(address _donor, uint256 amount) internal {... */\n    tag_118:\n        /* \"contracts/DonorRegistry.sol\":345:351  _donor */\n      dup2\n        /* \"contracts/DonorRegistry.sol\":319:328  donorData */\n      0x00\n        /* \"contracts/DonorRegistry.sol\":319:336  donorData[_donor] */\n      dup1\n        /* \"contracts/DonorRegistry.sol\":329:335  _donor */\n      dup5\n        /* \"contracts/DonorRegistry.sol\":319:336  donorData[_donor] */\n      0xffffffffffffffffffffffffffffffffffffffff\n      and\n      0xffffffffffffffffffffffffffffffffffffffff\n      and\n      dup2\n      mstore\n      0x20\n      add\n      swap1\n      dup2\n      mstore\n      0x20\n      add\n      0x00\n      keccak256\n        /* \"contracts/DonorRegistry.sol\":319:342  donorData[_donor].donor */\n      0x00\n      add\n      0x00\n        /* \"contracts/DonorRegistry.sol\":319:351  donorData[_donor].donor = _donor */\n      0x0100\n      exp\n      dup2\n      sload\n      dup2\n      0xffffffffffffffffffffffffffffffffffffffff\n      mul\n      not\n      and\n      swap1\n      dup4\n      0xffffffffffffffffffffffffffffffffffffffff\n      and\n      mul\n      or\n      swap1\n      sstore\n      pop\n        /* \"contracts/DonorRegistry.sol\":395:401  amount */\n      dup1\n        /* \"contracts/DonorRegistry.sol\":361:370  donorData */\n      0x00\n        /* \"contracts/DonorRegistry.sol\":361:378  donorData[_donor] */\n      dup1\n        /* \"contracts/DonorRegistry.sol\":371:377  _donor */\n      dup5\n        /* \"contracts/DonorRegistry.sol\":361:378  donorData[_donor] */\n      0xffffffffffffffffffffffffffffffffffffffff\n      and\n      0xffffffffffffffffffffffffffffffffffffffff\n      and\n      dup2\n      mstore\n      0x20\n      add\n      swap1\n      dup2\n      mstore\n      0x20\n      add\n      0x00\n      keccak256\n        /* \"contracts/DonorRegistry.sol\":361:391  donorData[_donor].totalDonated */\n      0x01\n      add\n      0x00\n        /* \"contracts/DonorRegistry.sol\":361:401  donorData[_donor].totalDonated += amount */\n      dup3\n      dup3\n      sload\n      tag_131\n      swap2\n      swap1\n      tag_116\n      jump\t// in\n    tag_131:\n      swap3\n      pop\n      pop\n      dup2\n      swap1\n      sstore\n      pop\n        /* \"contracts/DonorRegistry.sol\":447:448  1 */\n      0x01\n        /* \"contracts/DonorRegistry.sol\":411:420  donorData */\n      0x00\n        /* \"contracts/DonorRegistry.sol\":411:428  donorData[_donor] */\n      dup1\n        /* \"contracts/DonorRegistry.sol\":421:427  _donor */\n      dup5\n        /* \"contracts/DonorRegistry.sol\":411:428  donorData[_donor] */\n      0xffffffffffffffffffffffffffffffffffffffff\n      and\n      0xffffffffffffffffffffffffffffffffffffffff\n      and\n      dup2\n      mstore\n      0x20\n      add\n      swap1\n      dup2\n      mstore\n      0x20\n      add\n      0x00\n      keccak256\n        /* \"contracts/DonorRegistry.sol\":411:443  donorData[_donor].donationsCount */\n      0x02\n      add\n      0x00\n        /* \"contracts/DonorRegistry.sol\":411:448  donorData[_donor].donationsCount += 1 */\n      dup3\n      dup3\n      sload\n      tag_132\n      swap2\n      swap1\n      tag_116\n      jump\t// in\n    tag_132:\n      swap3\n      pop\n      pop\n      dup2\n      swap1\n      sstore\n      pop\n        /* \"contracts/DonorRegistry.sol\":247:455  function updateDonor(address _donor, uint256 amount) internal {... */\n      pop\n      pop\n      jump\t// out\n        /* \"#utility.yul\":7:84   */\n    tag_133:\n        /* \"#utility.yul\":44:51   */\n      0x00\n        /* \"#utility.yul\":73:78   */\n      dup2\n        /* \"#utility.yul\":62:78   */\n      swap1\n      pop\n        /* \"#utility.yul\":7:84   */\n      swap2\n      swap1\n      pop\n      jump\t// out\n        /* \"#utility.yul\":90:208   */\n    tag_134:\n        /* \"#utility.yul\":177:201   */\n      tag_162\n        /* \"#utility.yul\":195:200   */\n      dup2\n        /* \"#utility.yul\":177:201   */\n      tag_133\n      jump\t// in\n    tag_162:\n        /* \"#utility.yul\":172:175   */\n      dup3\n        /* \"#utility.yul\":165:202   */\n      mstore\n        /* \"#utility.yul\":90:208   */\n      pop\n      pop\n      jump\t// out\n        /* \"#utility.yul\":214:436   */\n    tag_23:\n        /* \"#utility.yul\":307:311   */\n      0x00\n        /* \"#utility.yul\":345:347   */\n      0x20\n        /* \"#utility.yul\":334:343   */\n      dup3\n        /* \"#utility.yul\":330:348   */\n      add\n        /* \"#utility.yul\":322:348   */\n      swap1\n      pop\n        /* \"#utility.yul\":358:429   */\n      tag_164\n        /* \"#utility.yul\":426:427   */\n      0x00\n        /* \"#utility.yul\":415:424   */\n      dup4\n        /* \"#utility.yul\":411:428   */\n      add\n        /* \"#utility.yul\":402:408   */\n      dup5\n        /* \"#utility.yul\":358:429   */\n      tag_134\n      jump\t// in\n    tag_164:\n        /* \"#utility.yul\":214:436   */\n      swap3\n      swap2\n      pop\n      pop\n      jump\t// out\n        /* \"#utility.yul\":523:640   */\n    tag_136:\n        /* \"#utility.yul\":632:633   */\n      0x00\n        /* \"#utility.yul\":629:630   */\n      dup1\n        /* \"#utility.yul\":622:634   */\n      revert\n        /* \"#utility.yul\":769:895   */\n    tag_138:\n        /* \"#utility.yul\":806:813   */\n      0x00\n        /* \"#utility.yul\":846:888   */\n      0xffffffffffffffffffffffffffffffffffffffff\n        /* \"#utility.yul\":839:844   */\n      dup3\n        /* \"#utility.yul\":835:889   */\n      and\n        /* \"#utility.yul\":824:889   */\n      swap1\n      pop\n        /* \"#utility.yul\":769:895   */\n      swap2\n      swap1\n      pop\n      jump\t// out\n        /* \"#utility.yul\":901:997   */\n    tag_139:\n        /* \"#utility.yul\":938:945   */\n      0x00\n        /* \"#utility.yul\":967:991   */\n      tag_170\n        /* \"#utility.yul\":985:990   */\n      dup3\n        /* \"#utility.yul\":967:991   */\n      tag_138\n      jump\t// in\n    tag_170:\n        /* \"#utility.yul\":956:991   */\n      swap1\n      pop\n        /* \"#utility.yul\":901:997   */\n      swap2\n      swap1\n      pop\n      jump\t// out\n        /* \"#utility.yul\":1003:1125   */\n    tag_140:\n        /* \"#utility.yul\":1076:1100   */\n      tag_172\n        /* \"#utility.yul\":1094:1099   */\n      dup2\n        /* \"#utility.yul\":1076:1100   */\n      tag_139\n      jump\t// in\n    tag_172:\n        /* \"#utility.yul\":1069:1074   */\n      dup2\n        /* \"#utility.yul\":1066:1101   */\n      eq\n        /* \"#utility.yul\":1056:1119   */\n      tag_173\n      jumpi\n        /* \"#utility.yul\":1115:1116   */\n      0x00\n        /* \"#utility.yul\":1112:1113   */\n      dup1\n        /* \"#utility.yul\":1105:1117   */\n      revert\n        /* \"#utility.yul\":1056:1119   */\n    tag_173:\n        /* \"#utility.yul\":1003:1125   */\n      pop\n      jump\t// out\n        /* \"#utility.yul\":1131:1270   */\n    tag_141:\n        /* \"#utility.yul\":1177:1182   */\n      0x00\n        /* \"#utility.yul\":1215:1221   */\n      dup2\n        /* \"#utility.yul\":1202:1222   */\n      calldataload\n        /* \"#utility.yul\":1193:1222   */\n      swap1\n      pop\n        /* \"#utility.yul\":1231:1264   */\n      tag_175\n        /* \"#utility.yul\":1258:1263   */\n      dup2\n        /* \"#utility.yul\":1231:1264   */\n      tag_140\n      jump\t// in\n    tag_175:\n        /* \"#utility.yul\":1131:1270   */\n      swap3\n      swap2\n      pop\n      pop\n      jump\t// out\n        /* \"#utility.yul\":1276:1605   */\n    tag_27:\n        /* \"#utility.yul\":1335:1341   */\n      0x00\n        /* \"#utility.yul\":1384:1386   */\n      0x20\n        /* \"#utility.yul\":1372:1381   */\n      dup3\n        /* \"#utility.yul\":1363:1370   */\n      dup5\n        /* \"#utility.yul\":1359:1382   */\n      sub\n        /* \"#utility.yul\":1355:1387   */\n      slt\n        /* \"#utility.yul\":1352:1471   */\n      iszero\n      tag_177\n      jumpi\n        /* \"#utility.yul\":1390:1469   */\n      tag_178\n      tag_136\n      jump\t// in\n    tag_178:\n        /* \"#utility.yul\":1352:1471   */\n    tag_177:\n        /* \"#utility.yul\":1510:1511   */\n      0x00\n        /* \"#utility.yul\":1535:1588   */\n      tag_179\n        /* \"#utility.yul\":1580:1587   */\n      dup5\n        /* \"#utility.yul\":1571:1577   */\n      dup3\n        /* \"#utility.yul\":1560:1569   */\n      dup6\n        /* \"#utility.yul\":1556:1578   */\n      add\n        /* \"#utility.yul\":1535:1588   */\n      tag_141\n      jump\t// in\n    tag_179:\n        /* \"#utility.yul\":1525:1588   */\n      swap2\n      pop\n        /* \"#utility.yul\":1481:1598   */\n      pop\n        /* \"#utility.yul\":1276:1605   */\n      swap3\n      swap2\n      pop\n      pop\n      jump\t// out\n        /* \"#utility.yul\":1611:1729   */\n    tag_142:\n        /* \"#utility.yul\":1698:1722   */\n      tag_181\n        /* \"#utility.yul\":1716:1721   */\n      dup2\n        /* \"#utility.yul\":1698:1722   */\n      tag_139\n      jump\t// in\n    tag_181:\n        /* \"#utility.yul\":1693:1696   */\n      dup3\n        /* \"#utility.yul\":1686:1723   */\n      mstore\n        /* \"#utility.yul\":1611:1729   */\n      pop\n      pop\n      jump\t// out\n        /* \"#utility.yul\":1735:2177   */\n    tag_30:\n        /* \"#utility.yul\":1884:1888   */\n      0x00\n        /* \"#utility.yul\":1922:1924   */\n      0x60\n        /* \"#utility.yul\":1911:1920   */\n      dup3\n        /* \"#utility.yul\":1907:1925   */\n      add\n        /* \"#utility.yul\":1899:1925   */\n      swap1\n      pop\n        /* \"#utility.yul\":1935:2006   */\n      tag_183\n        /* \"#utility.yul\":2003:2004   */\n      0x00\n        /* \"#utility.yul\":1992:2001   */\n      dup4\n        /* \"#utility.yul\":1988:2005   */\n      add\n        /* \"#utility.yul\":1979:1985   */\n      dup7\n        /* \"#utility.yul\":1935:2006   */\n      tag_142\n      jump\t// in\n    tag_183:\n        /* \"#utility.yul\":2016:2088   */\n      tag_184\n        /* \"#utility.yul\":2084:2086   */\n      0x20\n        /* \"#utility.yul\":2073:2082   */\n      dup4\n        /* \"#utility.yul\":2069:2087   */\n      add\n        /* \"#utility.yul\":2060:2066   */\n      dup6\n        /* \"#utility.yul\":2016:2088   */\n      tag_134\n      jump\t// in\n    tag_184:\n        /* \"#utility.yul\":2098:2170   */\n      tag_185\n        /* \"#utility.yul\":2166:2168   */\n      0x40\n        /* \"#utility.yul\":2155:2164   */\n      dup4\n        /* \"#utility.yul\":2151:2169   */\n      add\n        /* \"#utility.yul\":2142:2148   */\n      dup5\n        /* \"#utility.yul\":2098:2170   */\n      tag_134\n      jump\t// in\n    tag_185:\n        /* \"#utility.yul\":1735:2177   */\n      swap5\n      swap4\n      pop\n      pop\n      pop\n      pop\n      jump\t// out\n        /* \"#utility.yul\":2183:2273   */\n    tag_143:\n        /* \"#utility.yul\":2217:2224   */\n      0x00\n        /* \"#utility.yul\":2260:2265   */\n      dup2\n        /* \"#utility.yul\":2253:2266   */\n      iszero\n        /* \"#utility.yul\":2246:2267   */\n      iszero\n        /* \"#utility.yul\":2235:2267   */\n      swap1\n      pop\n        /* \"#utility.yul\":2183:2273   */\n      swap2\n      swap1\n      pop\n      jump\t// out\n        /* \"#utility.yul\":2279:2388   */\n    tag_144:\n        /* \"#utility.yul\":2360:2381   */\n      tag_188\n        /* \"#utility.yul\":2375:2380   */\n      dup2\n        /* \"#utility.yul\":2360:2381   */\n      tag_143\n      jump\t// in\n    tag_188:\n        /* \"#utility.yul\":2355:2358   */\n      dup3\n        /* \"#utility.yul\":2348:2382   */\n      mstore\n        /* \"#utility.yul\":2279:2388   */\n      pop\n      pop\n      jump\t// out\n        /* \"#utility.yul\":2394:2604   */\n    tag_36:\n        /* \"#utility.yul\":2481:2485   */\n      0x00\n        /* \"#utility.yul\":2519:2521   */\n      0x20\n        /* \"#utility.yul\":2508:2517   */\n      dup3\n        /* \"#utility.yul\":2504:2522   */\n      add\n        /* \"#utility.yul\":2496:2522   */\n      swap1\n      pop\n        /* \"#utility.yul\":2532:2597   */\n      tag_190\n        /* \"#utility.yul\":2594:2595   */\n      0x00\n        /* \"#utility.yul\":2583:2592   */\n      dup4\n        /* \"#utility.yul\":2579:2596   */\n      add\n        /* \"#utility.yul\":2570:2576   */\n      dup5\n        /* \"#utility.yul\":2532:2597   */\n      tag_144\n      jump\t// in\n    tag_190:\n        /* \"#utility.yul\":2394:2604   */\n      swap3\n      swap2\n      pop\n      pop\n      jump\t// out\n        /* \"#utility.yul\":2610:2732   */\n    tag_145:\n        /* \"#utility.yul\":2683:2707   */\n      tag_192\n        /* \"#utility.yul\":2701:2706   */\n      dup2\n        /* \"#utility.yul\":2683:2707   */\n      tag_133\n      jump\t// in\n    tag_192:\n        /* \"#utility.yul\":2676:2681   */\n      dup2\n        /* \"#utility.yul\":2673:2708   */\n      eq\n        /* \"#utility.yul\":2663:2726   */\n      tag_193\n      jumpi\n        /* \"#utility.yul\":2722:2723   */\n      0x00\n        /* \"#utility.yul\":2719:2720   */\n      dup1\n        /* \"#utility.yul\":2712:2724   */\n      revert\n        /* \"#utility.yul\":2663:2726   */\n    tag_193:\n        /* \"#utility.yul\":2610:2732   */\n      pop\n      jump\t// out\n        /* \"#utility.yul\":2738:2877   */\n    tag_146:\n        /* \"#utility.yul\":2784:2789   */\n      0x00\n        /* \"#utility.yul\":2822:2828   */\n      dup2\n        /* \"#utility.yul\":2809:2829   */\n      calldataload\n        /* \"#utility.yul\":2800:2829   */\n      swap1\n      pop\n        /* \"#utility.yul\":2838:2871   */\n      tag_195\n        /* \"#utility.yul\":2865:2870   */\n      dup2\n        /* \"#utility.yul\":2838:2871   */\n      tag_145\n      jump\t// in\n    tag_195:\n        /* \"#utility.yul\":2738:2877   */\n      swap3\n      swap2\n      pop\n      pop\n      jump\t// out\n        /* \"#utility.yul\":2883:3212   */\n    tag_40:\n        /* \"#utility.yul\":2942:2948   */\n      0x00\n        /* \"#utility.yul\":2991:2993   */\n      0x20\n        /* \"#utility.yul\":2979:2988   */\n      dup3\n        /* \"#utility.yul\":2970:2977   */\n      dup5\n        /* \"#utility.yul\":2966:2989   */\n      sub\n        /* \"#utility.yul\":2962:2994   */\n      slt\n        /* \"#utility.yul\":2959:3078   */\n      iszero\n      tag_197\n      jumpi\n        /* \"#utility.yul\":2997:3076   */\n      tag_198\n      tag_136\n      jump\t// in\n    tag_198:\n        /* \"#utility.yul\":2959:3078   */\n    tag_197:\n        /* \"#utility.yul\":3117:3118   */\n      0x00\n        /* \"#utility.yul\":3142:3195   */\n      tag_199\n        /* \"#utility.yul\":3187:3194   */\n      dup5\n        /* \"#utility.yul\":3178:3184   */\n      dup3\n        /* \"#utility.yul\":3167:3176   */\n      dup6\n        /* \"#utility.yul\":3163:3185   */\n      add\n        /* \"#utility.yul\":3142:3195   */\n      tag_146\n      jump\t// in\n    tag_199:\n        /* \"#utility.yul\":3132:3195   */\n      swap2\n      pop\n        /* \"#utility.yul\":3088:3205   */\n      pop\n        /* \"#utility.yul\":2883:3212   */\n      swap3\n      swap2\n      pop\n      pop\n      jump\t// out\n        /* \"#utility.yul\":3218:3440   */\n    tag_50:\n        /* \"#utility.yul\":3311:3315   */\n      0x00\n        /* \"#utility.yul\":3349:3351   */\n      0x20\n        /* \"#utility.yul\":3338:3347   */\n      dup3\n        /* \"#utility.yul\":3334:3352   */\n      add\n        /* \"#utility.yul\":3326:3352   */\n      swap1\n      pop\n        /* \"#utility.yul\":3362:3433   */\n      tag_201\n        /* \"#utility.yul\":3430:3431   */\n      0x00\n        /* \"#utility.yul\":3419:3428   */\n      dup4\n        /* \"#utility.yul\":3415:3432   */\n      add\n        /* \"#utility.yul\":3406:3412   */\n      dup5\n        /* \"#utility.yul\":3362:3433   */\n      tag_142\n      jump\t// in\n    tag_201:\n        /* \"#utility.yul\":3218:3440   */\n      swap3\n      swap2\n      pop\n      pop\n      jump\t// out\n        /* \"#utility.yul\":3446:3778   */\n    tag_61:\n        /* \"#utility.yul\":3567:3571   */\n      0x00\n        /* \"#utility.yul\":3605:3607   */\n      0x40\n        /* \"#utility.yul\":3594:3603   */\n      dup3\n        /* \"#utility.yul\":3590:3608   */\n      add\n        /* \"#utility.yul\":3582:3608   */\n      swap1\n      pop\n        /* \"#utility.yul\":3618:3689   */\n      tag_203\n        /* \"#utility.yul\":3686:3687   */\n      0x00\n        /* \"#utility.yul\":3675:3684   */\n      dup4\n        /* \"#utility.yul\":3671:3688   */\n      add\n        /* \"#utility.yul\":3662:3668   */\n      dup6\n        /* \"#utility.yul\":3618:3689   */\n      tag_134\n      jump\t// in\n    tag_203:\n        /* \"#utility.yul\":3699:3771   */\n      tag_204\n        /* \"#utility.yul\":3767:3769   */\n      0x20\n        /* \"#utility.yul\":3756:3765   */\n      dup4\n        /* \"#utility.yul\":3752:3770   */\n      add\n        /* \"#utility.yul\":3743:3749   */\n      dup5\n        /* \"#utility.yul\":3699:3771   */\n      tag_134\n      jump\t// in\n    tag_204:\n        /* \"#utility.yul\":3446:3778   */\n      swap4\n      swap3\n      pop\n      pop\n      pop\n      jump\t// out\n        /* \"#utility.yul\":3784:3953   */\n    tag_147:\n        /* \"#utility.yul\":3868:3879   */\n      0x00\n        /* \"#utility.yul\":3902:3908   */\n      dup3\n        /* \"#utility.yul\":3897:3900   */\n      dup3\n        /* \"#utility.yul\":3890:3909   */\n      mstore\n        /* \"#utility.yul\":3942:3946   */\n      0x20\n        /* \"#utility.yul\":3937:3940   */\n      dup3\n        /* \"#utility.yul\":3933:3947   */\n      add\n        /* \"#utility.yul\":3918:3947   */\n      swap1\n      pop\n        /* \"#utility.yul\":3784:3953   */\n      swap3\n      swap2\n      pop\n      pop\n      jump\t// out\n        /* \"#utility.yul\":3959:4125   */\n    tag_148:\n        /* \"#utility.yul\":4099:4117   */\n      0x4e474f206e6f7420617070726f76656400000000000000000000000000000000\n        /* \"#utility.yul\":4095:4096   */\n      0x00\n        /* \"#utility.yul\":4087:4093   */\n      dup3\n        /* \"#utility.yul\":4083:4097   */\n      add\n        /* \"#utility.yul\":4076:4118   */\n      mstore\n        /* \"#utility.yul\":3959:4125   */\n      pop\n      jump\t// out\n        /* \"#utility.yul\":4131:4497   */\n    tag_149:\n        /* \"#utility.yul\":4273:4276   */\n      0x00\n        /* \"#utility.yul\":4294:4361   */\n      tag_208\n        /* \"#utility.yul\":4358:4360   */\n      0x10\n        /* \"#utility.yul\":4353:4356   */\n      dup4\n        /* \"#utility.yul\":4294:4361   */\n      tag_147\n      jump\t// in\n    tag_208:\n        /* \"#utility.yul\":4287:4361   */\n      swap2\n      pop\n        /* \"#utility.yul\":4370:4463   */\n      tag_209\n        /* \"#utility.yul\":4459:4462   */\n      dup3\n        /* \"#utility.yul\":4370:4463   */\n      tag_148\n      jump\t// in\n    tag_209:\n        /* \"#utility.yul\":4488:4490   */\n      0x20\n        /* \"#utility.yul\":4483:4486   */\n      dup3\n        /* \"#utility.yul\":4479:4491   */\n      add\n        /* \"#utility.yul\":4472:4491   */\n      swap1\n      pop\n        /* \"#utility.yul\":4131:4497   */\n      swap2\n      swap1\n      pop\n      jump\t// out\n        /* \"#utility.yul\":4503:4922   */\n    tag_92:\n        /* \"#utility.yul\":4669:4673   */\n      0x00\n        /* \"#utility.yul\":4707:4709   */\n      0x20\n        /* \"#utility.yul\":4696:4705   */\n      dup3\n        /* \"#utility.yul\":4692:4710   */\n      add\n        /* \"#utility.yul\":4684:4710   */\n      swap1\n      pop\n        /* \"#utility.yul\":4756:4765   */\n      dup2\n        /* \"#utility.yul\":4750:4754   */\n      dup2\n        /* \"#utility.yul\":4746:4766   */\n      sub\n        /* \"#utility.yul\":4742:4743   */\n      0x00\n        /* \"#utility.yul\":4731:4740   */\n      dup4\n        /* \"#utility.yul\":4727:4744   */\n      add\n        /* \"#utility.yul\":4720:4767   */\n      mstore\n        /* \"#utility.yul\":4784:4915   */\n      tag_211\n        /* \"#utility.yul\":4910:4914   */\n      dup2\n        /* \"#utility.yul\":4784:4915   */\n      tag_149\n      jump\t// in\n    tag_211:\n        /* \"#utility.yul\":4776:4915   */\n      swap1\n      pop\n        /* \"#utility.yul\":4503:4922   */\n      swap2\n      swap1\n      pop\n      jump\t// out\n        /* \"#utility.yul\":4928:5098   */\n    tag_150:\n        /* \"#utility.yul\":5068:5090   */\n      0x496e73756666696369656e742062616c616e6365000000000000000000000000\n        /* \"#utility.yul\":5064:5065   */\n      0x00\n        /* \"#utility.yul\":5056:5062   */\n      dup3\n        /* \"#utility.yul\":5052:5066   */\n      add\n        /* \"#utility.yul\":5045:5091   */\n      mstore\n        /* \"#utility.yul\":4928:5098   */\n      pop\n      jump\t// out\n        /* \"#utility.yul\":5104:5470   */\n    tag_151:\n        /* \"#utility.yul\":5246:5249   */\n      0x00\n        /* \"#utility.yul\":5267:5334   */\n      tag_214\n        /* \"#utility.yul\":5331:5333   */\n      0x14\n        /* \"#utility.yul\":5326:5329   */\n      dup4\n        /* \"#utility.yul\":5267:5334   */\n      tag_147\n      jump\t// in\n    tag_214:\n        /* \"#utility.yul\":5260:5334   */\n      swap2\n      pop\n        /* \"#utility.yul\":5343:5436   */\n      tag_215\n        /* \"#utility.yul\":5432:5435   */\n      dup3\n        /* \"#utility.yul\":5343:5436   */\n      tag_150\n      jump\t// in\n    tag_215:\n        /* \"#utility.yul\":5461:5463   */\n      0x20\n        /* \"#utility.yul\":5456:5459   */\n      dup3\n        /* \"#utility.yul\":5452:5464   */\n      add\n        /* \"#utility.yul\":5445:5464   */\n      swap1\n      pop\n        /* \"#utility.yul\":5104:5470   */\n      swap2\n      swap1\n      pop\n      jump\t// out\n        /* \"#utility.yul\":5476:5895   */\n    tag_95:\n        /* \"#utility.yul\":5642:5646   */\n      0x00\n        /* \"#utility.yul\":5680:5682   */\n      0x20\n        /* \"#utility.yul\":5669:5678   */\n      dup3\n        /* \"#utility.yul\":5665:5683   */\n      add\n        /* \"#utility.yul\":5657:5683   */\n      swap1\n      pop\n        /* \"#utility.yul\":5729:5738   */\n      dup2\n        /* \"#utility.yul\":5723:5727   */\n      dup2\n        /* \"#utility.yul\":5719:5739   */\n      sub\n        /* \"#utility.yul\":5715:5716   */\n      0x00\n        /* \"#utility.yul\":5704:5713   */\n      dup4\n        /* \"#utility.yul\":5700:5717   */\n      add\n        /* \"#utility.yul\":5693:5740   */\n      mstore\n        /* \"#utility.yul\":5757:5888   */\n      tag_217\n        /* \"#utility.yul\":5883:5887   */\n      dup2\n        /* \"#utility.yul\":5757:5888   */\n      tag_151\n      jump\t// in\n    tag_217:\n        /* \"#utility.yul\":5749:5888   */\n      swap1\n      pop\n        /* \"#utility.yul\":5476:5895   */\n      swap2\n      swap1\n      pop\n      jump\t// out\n        /* \"#utility.yul\":5901:6064   */\n    tag_152:\n        /* \"#utility.yul\":6041:6056   */\n      0x4e6f7420746865206f776e657200000000000000000000000000000000000000\n        /* \"#utility.yul\":6037:6038   */\n      0x00\n        /* \"#utility.yul\":6029:6035   */\n      dup3\n        /* \"#utility.yul\":6025:6039   */\n      add\n        /* \"#utility.yul\":6018:6057   */\n      mstore\n        /* \"#utility.yul\":5901:6064   */\n      pop\n      jump\t// out\n        /* \"#utility.yul\":6070:6436   */\n    tag_153:\n        /* \"#utility.yul\":6212:6215   */\n      0x00\n        /* \"#utility.yul\":6233:6300   */\n      tag_220\n        /* \"#utility.yul\":6297:6299   */\n      0x0d\n        /* \"#utility.yul\":6292:6295   */\n      dup4\n        /* \"#utility.yul\":6233:6300   */\n      tag_147\n      jump\t// in\n    tag_220:\n        /* \"#utility.yul\":6226:6300   */\n      swap2\n      pop\n        /* \"#utility.yul\":6309:6402   */\n      tag_221\n        /* \"#utility.yul\":6398:6401   */\n      dup3\n        /* \"#utility.yul\":6309:6402   */\n      tag_152\n      jump\t// in\n    tag_221:\n        /* \"#utility.yul\":6427:6429   */\n      0x20\n        /* \"#utility.yul\":6422:6425   */\n      dup3\n        /* \"#utility.yul\":6418:6430   */\n      add\n        /* \"#utility.yul\":6411:6430   */\n      swap1\n      pop\n        /* \"#utility.yul\":6070:6436   */\n      swap2\n      swap1\n      pop\n      jump\t// out\n        /* \"#utility.yul\":6442:6861   */\n    tag_102:\n        /* \"#utility.yul\":6608:6612   */\n      0x00\n        /* \"#utility.yul\":6646:6648   */\n      0x20\n        /* \"#utility.yul\":6635:6644   */\n      dup3\n        /* \"#utility.yul\":6631:6649   */\n      add\n        /* \"#utility.yul\":6623:6649   */\n      swap1\n      pop\n        /* \"#utility.yul\":6695:6704   */\n      dup2\n        /* \"#utility.yul\":6689:6693   */\n      dup2\n        /* \"#utility.yul\":6685:6705   */\n      sub\n        /* \"#utility.yul\":6681:6682   */\n      0x00\n        /* \"#utility.yul\":6670:6679   */\n      dup4\n        /* \"#utility.yul\":6666:6683   */\n      add\n        /* \"#utility.yul\":6659:6706   */\n      mstore\n        /* \"#utility.yul\":6723:6854   */\n      tag_223\n        /* \"#utility.yul\":6849:6853   */\n      dup2\n        /* \"#utility.yul\":6723:6854   */\n      tag_153\n      jump\t// in\n    tag_223:\n        /* \"#utility.yul\":6715:6854   */\n      swap1\n      pop\n        /* \"#utility.yul\":6442:6861   */\n      swap2\n      swap1\n      pop\n      jump\t// out\n        /* \"#utility.yul\":6867:7048   */\n    tag_154:\n        /* \"#utility.yul\":7007:7040   */\n      0x446f6e6174696f6e206d7573742062652067726561746572207468616e203000\n        /* \"#utility.yul\":7003:7004   */\n      0x00\n        /* \"#utility.yul\":6995:7001   */\n      dup3\n        /* \"#utility.yul\":6991:7005   */\n      add\n        /* \"#utility.yul\":6984:7041   */\n      mstore\n        /* \"#utility.yul\":6867:7048   */\n      pop\n      jump\t// out\n        /* \"#utility.yul\":7054:7420   */\n    tag_155:\n        /* \"#utility.yul\":7196:7199   */\n      0x00\n        /* \"#utility.yul\":7217:7284   */\n      tag_226\n        /* \"#utility.yul\":7281:7283   */\n      0x1f\n        /* \"#utility.yul\":7276:7279   */\n      dup4\n        /* \"#utility.yul\":7217:7284   */\n      tag_147\n      jump\t// in\n    tag_226:\n        /* \"#utility.yul\":7210:7284   */\n      swap2\n      pop\n        /* \"#utility.yul\":7293:7386   */\n      tag_227\n        /* \"#utility.yul\":7382:7385   */\n      dup3\n        /* \"#utility.yul\":7293:7386   */\n      tag_154\n      jump\t// in\n    tag_227:\n        /* \"#utility.yul\":7411:7413   */\n      0x20\n        /* \"#utility.yul\":7406:7409   */\n      dup3\n        /* \"#utility.yul\":7402:7414   */\n      add\n        /* \"#utility.yul\":7395:7414   */\n      swap1\n      pop\n        /* \"#utility.yul\":7054:7420   */\n      swap2\n      swap1\n      pop\n      jump\t// out\n        /* \"#utility.yul\":7426:7845   */\n    tag_113:\n        /* \"#utility.yul\":7592:7596   */\n      0x00\n        /* \"#utility.yul\":7630:7632   */\n      0x20\n        /* \"#utility.yul\":7619:7628   */\n      dup3\n        /* \"#utility.yul\":7615:7633   */\n      add\n        /* \"#utility.yul\":7607:7633   */\n      swap1\n      pop\n        /* \"#utility.yul\":7679:7688   */\n      dup2\n        /* \"#utility.yul\":7673:7677   */\n      dup2\n        /* \"#utility.yul\":7669:7689   */\n      sub\n        /* \"#utility.yul\":7665:7666   */\n      0x00\n        /* \"#utility.yul\":7654:7663   */\n      dup4\n        /* \"#utility.yul\":7650:7667   */\n      add\n        /* \"#utility.yul\":7643:7690   */\n      mstore\n        /* \"#utility.yul\":7707:7838   */\n      tag_229\n        /* \"#utility.yul\":7833:7837   */\n      dup2\n        /* \"#utility.yul\":7707:7838   */\n      tag_155\n      jump\t// in\n    tag_229:\n        /* \"#utility.yul\":7699:7838   */\n      swap1\n      pop\n        /* \"#utility.yul\":7426:7845   */\n      swap2\n      swap1\n      pop\n      jump\t// out\n        /* \"#utility.yul\":7851:8031   */\n    tag_156:\n        /* \"#utility.yul\":7899:7976   */\n      0x4e487b7100000000000000000000000000000000000000000000000000000000\n        /* \"#utility.yul\":7896:7897   */\n      0x00\n        /* \"#utility.yul\":7889:7977   */\n      mstore\n        /* \"#utility.yul\":7996:8000   */\n      0x11\n        /* \"#utility.yul\":7993:7994   */\n      0x04\n        /* \"#utility.yul\":7986:8001   */\n      mstore\n        /* \"#utility.yul\":8020:8024   */\n      0x24\n        /* \"#utility.yul\":8017:8018   */\n      0x00\n        /* \"#utility.yul\":8010:8025   */\n      revert\n        /* \"#utility.yul\":8037:8228   */\n    tag_116:\n        /* \"#utility.yul\":8077:8080   */\n      0x00\n        /* \"#utility.yul\":8096:8116   */\n      tag_232\n        /* \"#utility.yul\":8114:8115   */\n      dup3\n        /* \"#utility.yul\":8096:8116   */\n      tag_133\n      jump\t// in\n    tag_232:\n        /* \"#utility.yul\":8091:8116   */\n      swap2\n      pop\n        /* \"#utility.yul\":8130:8150   */\n      tag_233\n        /* \"#utility.yul\":8148:8149   */\n      dup4\n        /* \"#utility.yul\":8130:8150   */\n      tag_133\n      jump\t// in\n    tag_233:\n        /* \"#utility.yul\":8125:8150   */\n      swap3\n      pop\n        /* \"#utility.yul\":8173:8174   */\n      dup3\n        /* \"#utility.yul\":8170:8171   */\n      dup3\n        /* \"#utility.yul\":8166:8175   */\n      add\n        /* \"#utility.yul\":8159:8175   */\n      swap1\n      pop\n        /* \"#utility.yul\":8194:8197   */\n      dup1\n        /* \"#utility.yul\":8191:8192   */\n      dup3\n        /* \"#utility.yul\":8188:8198   */\n      gt\n        /* \"#utility.yul\":8185:8221   */\n      iszero\n      tag_234\n      jumpi\n        /* \"#utility.yul\":8201:8219   */\n      tag_235\n      tag_156\n      jump\t// in\n    tag_235:\n        /* \"#utility.yul\":8185:8221   */\n    tag_234:\n        /* \"#utility.yul\":8037:8228   */\n      swap3\n      swap2\n      pop\n      pop\n      jump\t// out\n        /* \"#utility.yul\":8234:8397   */\n    tag_157:\n        /* \"#utility.yul\":8374:8389   */\n      0x496e76616c696420696e64657800000000000000000000000000000000000000\n        /* \"#utility.yul\":8370:8371   */\n      0x00\n        /* \"#utility.yul\":8362:8368   */\n      dup3\n        /* \"#utility.yul\":8358:8372   */\n      add\n        /* \"#utility.yul\":8351:8390   */\n      mstore\n        /* \"#utility.yul\":8234:8397   */\n      pop\n      jump\t// out\n        /* \"#utility.yul\":8403:8769   */\n    tag_158:\n        /* \"#utility.yul\":8545:8548   */\n      0x00\n        /* \"#utility.yul\":8566:8633   */\n      tag_238\n        /* \"#utility.yul\":8630:8632   */\n      0x0d\n        /* \"#utility.yul\":8625:8628   */\n      dup4\n        /* \"#utility.yul\":8566:8633   */\n      tag_147\n      jump\t// in\n    tag_238:\n        /* \"#utility.yul\":8559:8633   */\n      swap2\n      pop\n        /* \"#utility.yul\":8642:8735   */\n      tag_239\n        /* \"#utility.yul\":8731:8734   */\n      dup3\n        /* \"#utility.yul\":8642:8735   */\n      tag_157\n      jump\t// in\n    tag_239:\n        /* \"#utility.yul\":8760:8762   */\n      0x20\n        /* \"#utility.yul\":8755:8758   */\n      dup3\n        /* \"#utility.yul\":8751:8763   */\n      add\n        /* \"#utility.yul\":8744:8763   */\n      swap1\n      pop\n        /* \"#utility.yul\":8403:8769   */\n      swap2\n      swap1\n      pop\n      jump\t// out\n        /* \"#utility.yul\":8775:9194   */\n    tag_123:\n        /* \"#utility.yul\":8941:8945   */\n      0x00\n        /* \"#utility.yul\":8979:8981   */\n      0x20\n        /* \"#utility.yul\":8968:8977   */\n      dup3\n        /* \"#utility.yul\":8964:8982   */\n      add\n        /* \"#utility.yul\":8956:8982   */\n      swap1\n      pop\n        /* \"#utility.yul\":9028:9037   */\n      dup2\n        /* \"#utility.yul\":9022:9026   */\n      dup2\n        /* \"#utility.yul\":9018:9038   */\n      sub\n        /* \"#utility.yul\":9014:9015   */\n      0x00\n        /* \"#utility.yul\":9003:9012   */\n      dup4\n        /* \"#utility.yul\":8999:9016   */\n      add\n        /* \"#utility.yul\":8992:9039   */\n      mstore\n        /* \"#utility.yul\":9056:9187   */\n      tag_241\n        /* \"#utility.yul\":9182:9186   */\n      dup2\n        /* \"#utility.yul\":9056:9187   */\n      tag_158\n      jump\t// in\n    tag_241:\n        /* \"#utility.yul\":9048:9187   */\n      swap1\n      pop\n        /* \"#utility.yul\":8775:9194   */\n      swap2\n      swap1\n      pop\n      jump\t// out\n        /* \"#utility.yul\":9200:9380   */\n    tag_126:\n        /* \"#utility.yul\":9248:9325   */\n      0x4e487b7100000000000000000000000000000000000000000000000000000000\n        /* \"#utility.yul\":9245:9246   */\n      0x00\n        /* \"#utility.yul\":9238:9326   */\n      mstore\n        /* \"#utility.yul\":9345:9349   */\n      0x32\n        /* \"#utility.yul\":9342:9343   */\n      0x04\n        /* \"#utility.yul\":9335:9350   */\n      mstore\n        /* \"#utility.yul\":9369:9373   */\n      0x24\n        /* \"#utility.yul\":9366:9367   */\n      0x00\n        /* \"#utility.yul\":9359:9374   */\n      revert\n\n    auxdata: 0xa26469706673582212207b6fa7e1ee8ea4e3870d59153a6a2cf52a4a5f2c9c22cc7868f277bd325ae3b764736f6c634300081a0033\n}\n",
				"bytecode": {
					"linkReferences": {},
					"object": "6080604052348015600e575f80fd5b503360015f6101000a81548173ffffffffffffffffffffffffffffffffffffffff021916908373ffffffffffffffffffffffffffffffffffffffff1602179055506110a48061005c5f395ff3fe6080604052600436106100dc575f3560e01c8063c46a60a51161007e578063de2ed89311610058578063de2ed893146102c9578063ed88c68e146102f3578063ef07a81f146102fd578063f8626af81461033b576100dc565b8063c46a60a51461023a578063c93527d814610277578063d22c7f19146102a1576100dc565b80632e1a7d4d116100ba5780632e1a7d4d146101845780636de1587e146101ac5780638da5cb5b146101d4578063ac4c7268146101fe576100dc565b806312065fe0146100e05780632941b0c31461010a5780632d5e40e214610148575b5f80fd5b3480156100eb575f80fd5b506100f4610379565b6040516101019190610c1b565b60405180910390f35b348015610115575f80fd5b50610130600480360381019061012b9190610c92565b610380565b60405161013f93929190610ccc565b60405180910390f35b348015610153575f80fd5b5061016e60048036038101906101699190610c92565b6103c4565b60405161017b9190610d1b565b60405180910390f35b34801561018f575f80fd5b506101aa60048036038101906101a59190610d5e565b610416565b005b3480156101b7575f80fd5b506101d260048036038101906101cd9190610c92565b610536565b005b3480156101df575f80fd5b506101e861061d565b6040516101f59190610d89565b60405180910390f35b348015610209575f80fd5b50610224600480360381019061021f9190610c92565b610642565b6040516102319190610d1b565b60405180910390f35b348015610245575f80fd5b50610260600480360381019061025b9190610c92565b61065f565b60405161026e929190610da2565b60405180910390f35b348015610282575f80fd5b5061028b610727565b6040516102989190610c1b565b60405180910390f35b3480156102ac575f80fd5b506102c760048036038101906102c29190610c92565b610733565b005b3480156102d4575f80fd5b506102dd610819565b6040516102ea9190610c1b565b60405180910390f35b6102fb61081f565b005b348015610308575f80fd5b50610323600480360381019061031e9190610d5e565b610988565b60405161033293929190610ccc565b60405180910390f35b348015610346575f80fd5b50610361600480360381019061035c9190610d5e565b610a84565b60405161037093929190610ccc565b60405180910390f35b5f47905090565b5f602052805f5260405f205f91509050805f015f9054906101000a900473ffffffffffffffffffffffffffffffffffffffff16908060010154908060020154905083565b5f60025f8373ffffffffffffffffffffffffffffffffffffffff1673ffffffffffffffffffffffffffffffffffffffff1681526020019081526020015f205f9054906101000a900460ff169050919050565b61041f336103c4565b61045e576040517f08c379a000000000000000000000000000000000000000000000000000000000815260040161045590610e23565b60405180910390fd5b478111156104a1576040517f08c379a000000000000000000000000000000000000000000000000000000000815260040161049890610e8b565b60405180910390fd5b3373ffffffffffffffffffffffffffffffffffffffff166108fc8290811502906040515f60405180830381858888f193505050501580156104e4573d5f803e3d5ffd5b503373ffffffffffffffffffffffffffffffffffffffff167f7fcf532c15f0a6db0bd6d0e038bea71d30d808c7d98cb3bf7268a95bf5081b658260405161052b9190610c1b565b60405180910390a250565b60015f9054906101000a900473ffffffffffffffffffffffffffffffffffffffff1673ffffffffffffffffffffffffffffffffffffffff163373ffffffffffffffffffffffffffffffffffffffff16146105c5576040517f08c379a00000000000000000000000000000000000000000000000000000000081526004016105bc90610ef3565b60405180910390fd5b600160025f8373ffffffffffffffffffffffffffffffffffffffff1673ffffffffffffffffffffffffffffffffffffffff1681526020019081526020015f205f6101000a81548160ff02191690831515021790555050565b60015f9054906101000a900473ffffffffffffffffffffffffffffffffffffffff1681565b6002602052805f5260405f205f915054906101000a900460ff1681565b5f805f805f8573ffffffffffffffffffffffffffffffffffffffff1673ffffffffffffffffffffffffffffffffffffffff1681526020019081526020015f206040518060600160405290815f82015f9054906101000a900473ffffffffffffffffffffffffffffffffffffffff1673ffffffffffffffffffffffffffffffffffffffff1673ffffffffffffffffffffffffffffffffffffffff168152602001600182015481526020016002820154815250509050806020015181604001519250925050915091565b5f600380549050905090565b60015f9054906101000a900473ffffffffffffffffffffffffffffffffffffffff1673ffffffffffffffffffffffffffffffffffffffff163373ffffffffffffffffffffffffffffffffffffffff16146107c2576040517f08c379a00000000000000000000000000000000000000000000000000000000081526004016107b990610ef3565b60405180910390fd5b5f60025f8373ffffffffffffffffffffffffffffffffffffffff1673ffffffffffffffffffffffffffffffffffffffff1681526020019081526020015f205f6101000a81548160ff02191690831515021790555050565b60045481565b5f3411610861576040517f08c379a000000000000000000000000000000000000000000000000000000000815260040161085890610f5b565b60405180910390fd5b600360405180606001604052803373ffffffffffffffffffffffffffffffffffffffff16815260200134815260200142815250908060018154018082558091505060019003905f5260205f2090600302015f909190919091505f820151815f015f6101000a81548173ffffffffffffffffffffffffffffffffffffffff021916908373ffffffffffffffffffffffffffffffffffffffff160217905550602082015181600101556040820151816002015550503460045f8282546109259190610fa6565b925050819055506109363334610ad8565b3373ffffffffffffffffffffffffffffffffffffffff167f4b0304ab2f313234b1cea012339c8f8c3bf2c8bb357d81a579cfdb35d2e3d030344260405161097e929190610da2565b60405180910390a2565b5f805f60038054905084106109d2576040517f08c379a00000000000000000000000000000000000000000000000000000000081526004016109c990611023565b60405180910390fd5b5f600385815481106109e7576109e6611041565b5b905f5260205f2090600302016040518060600160405290815f82015f9054906101000a900473ffffffffffffffffffffffffffffffffffffffff1673ffffffffffffffffffffffffffffffffffffffff1673ffffffffffffffffffffffffffffffffffffffff168152602001600182015481526020016002820154815250509050805f015181602001518260400151935093509350509193909250565b60038181548110610a93575f80fd5b905f5260205f2090600302015f91509050805f015f9054906101000a900473ffffffffffffffffffffffffffffffffffffffff16908060010154908060020154905083565b815f808473ffffffffffffffffffffffffffffffffffffffff1673ffffffffffffffffffffffffffffffffffffffff1681526020019081526020015f205f015f6101000a81548173ffffffffffffffffffffffffffffffffffffffff021916908373ffffffffffffffffffffffffffffffffffffffff160217905550805f808473ffffffffffffffffffffffffffffffffffffffff1673ffffffffffffffffffffffffffffffffffffffff1681526020019081526020015f206001015f828254610ba29190610fa6565b9250508190555060015f808473ffffffffffffffffffffffffffffffffffffffff1673ffffffffffffffffffffffffffffffffffffffff1681526020019081526020015f206002015f828254610bf89190610fa6565b925050819055505050565b5f819050919050565b610c1581610c03565b82525050565b5f602082019050610c2e5f830184610c0c565b92915050565b5f80fd5b5f73ffffffffffffffffffffffffffffffffffffffff82169050919050565b5f610c6182610c38565b9050919050565b610c7181610c57565b8114610c7b575f80fd5b50565b5f81359050610c8c81610c68565b92915050565b5f60208284031215610ca757610ca6610c34565b5b5f610cb484828501610c7e565b91505092915050565b610cc681610c57565b82525050565b5f606082019050610cdf5f830186610cbd565b610cec6020830185610c0c565b610cf96040830184610c0c565b949350505050565b5f8115159050919050565b610d1581610d01565b82525050565b5f602082019050610d2e5f830184610d0c565b92915050565b610d3d81610c03565b8114610d47575f80fd5b50565b5f81359050610d5881610d34565b92915050565b5f60208284031215610d7357610d72610c34565b5b5f610d8084828501610d4a565b91505092915050565b5f602082019050610d9c5f830184610cbd565b92915050565b5f604082019050610db55f830185610c0c565b610dc26020830184610c0c565b9392505050565b5f82825260208201905092915050565b7f4e474f206e6f7420617070726f766564000000000000000000000000000000005f82015250565b5f610e0d601083610dc9565b9150610e1882610dd9565b602082019050919050565b5f6020820190508181035f830152610e3a81610e01565b9050919050565b7f496e73756666696369656e742062616c616e63650000000000000000000000005f82015250565b5f610e75601483610dc9565b9150610e8082610e41565b602082019050919050565b5f6020820190508181035f830152610ea281610e69565b9050919050565b7f4e6f7420746865206f776e6572000000000000000000000000000000000000005f82015250565b5f610edd600d83610dc9565b9150610ee882610ea9565b602082019050919050565b5f6020820190508181035f830152610f0a81610ed1565b9050919050565b7f446f6e6174696f6e206d7573742062652067726561746572207468616e2030005f82015250565b5f610f45601f83610dc9565b9150610f5082610f11565b602082019050919050565b5f6020820190508181035f830152610f7281610f39565b9050919050565b7f4e487b71000000000000000000000000000000000000000000000000000000005f52601160045260245ffd5b5f610fb082610c03565b9150610fbb83610c03565b9250828201905080821115610fd357610fd2610f79565b5b92915050565b7f496e76616c696420696e646578000000000000000000000000000000000000005f82015250565b5f61100d600d83610dc9565b915061101882610fd9565b602082019050919050565b5f6020820190508181035f83015261103a81611001565b9050919050565b7f4e487b71000000000000000000000000000000000000000000000000000000005f52603260045260245ffdfea26469706673582212207b6fa7e1ee8ea4e3870d59153a6a2cf52a4a5f2c9c22cc7868f277bd325ae3b764736f6c634300081a0033",
					"opcodes": "PUSH1 0x80 PUSH1 0x40 MSTORE CALLVALUE DUP1 ISZERO PUSH1 0xE JUMPI PUSH0 DUP1 REVERT JUMPDEST POP CALLER PUSH1 0x1 PUSH0 PUSH2 0x100 EXP DUP2 SLOAD DUP2 PUSH20 0xFFFFFFFFFFFFFFFFFFFFFFFFFFFFFFFFFFFFFFFF MUL NOT AND SWAP1 DUP4 PUSH20 0xFFFFFFFFFFFFFFFFFFFFFFFFFFFFFFFFFFFFFFFF AND MUL OR SWAP1 SSTORE POP PUSH2 0x10A4 DUP1 PUSH2 0x5C PUSH0 CODECOPY PUSH0 RETURN INVALID PUSH1 0x80 PUSH1 0x40 MSTORE PUSH1 0x4 CALLDATASIZE LT PUSH2 0xDC JUMPI PUSH0 CALLDATALOAD PUSH1 0xE0 SHR DUP1 PUSH4 0xC46A60A5 GT PUSH2 0x7E JUMPI DUP1 PUSH4 0xDE2ED893 GT PUSH2 0x58 JUMPI DUP1 PUSH4 0xDE2ED893 EQ PUSH2 0x2C9 JUMPI DUP1 PUSH4 0xED88C68E EQ PUSH2 0x2F3 JUMPI DUP1 PUSH4 0xEF07A81F EQ PUSH2 0x2FD JUMPI DUP1 PUSH4 0xF8626AF8 EQ PUSH2 0x33B JUMPI PUSH2 0xDC JUMP JUMPDEST DUP1 PUSH4 0xC46A60A5 EQ PUSH2 0x23A JUMPI DUP1 PUSH4 0xC93527D8 EQ PUSH2 0x277 JUMPI DUP1 PUSH4 0xD22C7F19 EQ PUSH2 0x2A1 JUMPI PUSH2 0xDC JUMP JUMPDEST DUP1 PUSH4 0x2E1A7D4D GT PUSH2 0xBA JUMPI DUP1 PUSH4 0x2E1A7D4D EQ PUSH2 0x184 JUMPI DUP1 PUSH4 0x6DE1587E EQ PUSH2 0x1AC JUMPI DUP1 PUSH4 0x8DA5CB5B EQ PUSH2 0x1D4 JUMPI DUP1 PUSH4 0xAC4C7268 EQ PUSH2 0x1FE JUMPI PUSH2 0xDC JUMP JUMPDEST DUP1 PUSH4 0x12065FE0 EQ PUSH2 0xE0 JUMPI DUP1 PUSH4 0x2941B0C3 EQ PUSH2 0x10A JUMPI DUP1 PUSH4 0x2D5E40E2 EQ PUSH2 0x148 JUMPI JUMPDEST PUSH0 DUP1 REVERT JUMPDEST CALLVALUE DUP1 ISZERO PUSH2 0xEB JUMPI PUSH0 DUP1 REVERT JUMPDEST POP PUSH2 0xF4 PUSH2 0x379 JUMP JUMPDEST PUSH1 0x40 MLOAD PUSH2 0x101 SWAP2 SWAP1 PUSH2 0xC1B JUMP JUMPDEST PUSH1 0x40 MLOAD DUP1 SWAP2 SUB SWAP1 RETURN JUMPDEST CALLVALUE DUP1 ISZERO PUSH2 0x115 JUMPI PUSH0 DUP1 REVERT JUMPDEST POP PUSH2 0x130 PUSH1 0x4 DUP1 CALLDATASIZE SUB DUP2 ADD SWAP1 PUSH2 0x12B SWAP2 SWAP1 PUSH2 0xC92 JUMP JUMPDEST PUSH2 0x380 JUMP JUMPDEST PUSH1 0x40 MLOAD PUSH2 0x13F SWAP4 SWAP3 SWAP2 SWAP1 PUSH2 0xCCC JUMP JUMPDEST PUSH1 0x40 MLOAD DUP1 SWAP2 SUB SWAP1 RETURN JUMPDEST CALLVALUE DUP1 ISZERO PUSH2 0x153 JUMPI PUSH0 DUP1 REVERT JUMPDEST POP PUSH2 0x16E PUSH1 0x4 DUP1 CALLDATASIZE SUB DUP2 ADD SWAP1 PUSH2 0x169 SWAP2 SWAP1 PUSH2 0xC92 JUMP JUMPDEST PUSH2 0x3C4 JUMP JUMPDEST PUSH1 0x40 MLOAD PUSH2 0x17B SWAP2 SWAP1 PUSH2 0xD1B JUMP JUMPDEST PUSH1 0x40 MLOAD DUP1 SWAP2 SUB SWAP1 RETURN JUMPDEST CALLVALUE DUP1 ISZERO PUSH2 0x18F JUMPI PUSH0 DUP1 REVERT JUMPDEST POP PUSH2 0x1AA PUSH1 0x4 DUP1 CALLDATASIZE SUB DUP2 ADD SWAP1 PUSH2 0x1A5 SWAP2 SWAP1 PUSH2 0xD5E JUMP JUMPDEST PUSH2 0x416 JUMP JUMPDEST STOP JUMPDEST CALLVALUE DUP1 ISZERO PUSH2 0x1B7 JUMPI PUSH0 DUP1 REVERT JUMPDEST POP PUSH2 0x1D2 PUSH1 0x4 DUP1 CALLDATASIZE SUB DUP2 ADD SWAP1 PUSH2 0x1CD SWAP2 SWAP1 PUSH2 0xC92 JUMP JUMPDEST PUSH2 0x536 JUMP JUMPDEST STOP JUMPDEST CALLVALUE DUP1 ISZERO PUSH2 0x1DF JUMPI PUSH0 DUP1 REVERT JUMPDEST POP PUSH2 0x1E8 PUSH2 0x61D JUMP JUMPDEST PUSH1 0x40 MLOAD PUSH2 0x1F5 SWAP2 SWAP1 PUSH2 0xD89 JUMP JUMPDEST PUSH1 0x40 MLOAD DUP1 SWAP2 SUB SWAP1 RETURN JUMPDEST CALLVALUE DUP1 ISZERO PUSH2 0x209 JUMPI PUSH0 DUP1 REVERT JUMPDEST POP PUSH2 0x224 PUSH1 0x4 DUP1 CALLDATASIZE SUB DUP2 ADD SWAP1 PUSH2 0x21F SWAP2 SWAP1 PUSH2 0xC92 JUMP JUMPDEST PUSH2 0x642 JUMP JUMPDEST PUSH1 0x40 MLOAD PUSH2 0x231 SWAP2 SWAP1 PUSH2 0xD1B JUMP JUMPDEST PUSH1 0x40 MLOAD DUP1 SWAP2 SUB SWAP1 RETURN JUMPDEST CALLVALUE DUP1 ISZERO PUSH2 0x245 JUMPI PUSH0 DUP1 REVERT JUMPDEST POP PUSH2 0x260 PUSH1 0x4 DUP1 CALLDATASIZE SUB DUP2 ADD SWAP1 PUSH2 0x25B SWAP2 SWAP1 PUSH2 0xC92 JUMP JUMPDEST PUSH2 0x65F JUMP JUMPDEST PUSH1 0x40 MLOAD PUSH2 0x26E SWAP3 SWAP2 SWAP1 PUSH2 0xDA2 JUMP JUMPDEST PUSH1 0x40 MLOAD DUP1 SWAP2 SUB SWAP1 RETURN JUMPDEST CALLVALUE DUP1 ISZERO PUSH2 0x282 JUMPI PUSH0 DUP1 REVERT JUMPDEST POP PUSH2 0x28B PUSH2 0x727 JUMP JUMPDEST PUSH1 0x40 MLOAD PUSH2 0x298 SWAP2 SWAP1 PUSH2 0xC1B JUMP JUMPDEST PUSH1 0x40 MLOAD DUP1 SWAP2 SUB SWAP1 RETURN JUMPDEST CALLVALUE DUP1 ISZERO PUSH2 0x2AC JUMPI PUSH0 DUP1 REVERT JUMPDEST POP PUSH2 0x2C7 PUSH1 0x4 DUP1 CALLDATASIZE SUB DUP2 ADD SWAP1 PUSH2 0x2C2 SWAP2 SWAP1 PUSH2 0xC92 JUMP JUMPDEST PUSH2 0x733 JUMP JUMPDEST STOP JUMPDEST CALLVALUE DUP1 ISZERO PUSH2 0x2D4 JUMPI PUSH0 DUP1 REVERT JUMPDEST POP PUSH2 0x2DD PUSH2 0x819 JUMP JUMPDEST PUSH1 0x40 MLOAD PUSH2 0x2EA SWAP2 SWAP1 PUSH2 0xC1B JUMP JUMPDEST PUSH1 0x40 MLOAD DUP1 SWAP2 SUB SWAP1 RETURN JUMPDEST PUSH2 0x2FB PUSH2 0x81F JUMP JUMPDEST STOP JUMPDEST CALLVALUE DUP1 ISZERO PUSH2 0x308 JUMPI PUSH0 DUP1 REVERT JUMPDEST POP PUSH2 0x323 PUSH1 0x4 DUP1 CALLDATASIZE SUB DUP2 ADD SWAP1 PUSH2 0x31E SWAP2 SWAP1 PUSH2 0xD5E JUMP JUMPDEST PUSH2 0x988 JUMP JUMPDEST PUSH1 0x40 MLOAD PUSH2 0x332 SWAP4 SWAP3 SWAP2 SWAP1 PUSH2 0xCCC JUMP JUMPDEST PUSH1 0x40 MLOAD DUP1 SWAP2 SUB SWAP1 RETURN JUMPDEST CALLVALUE DUP1 ISZERO PUSH2 0x346 JUMPI PUSH0 DUP1 REVERT JUMPDEST POP PUSH2 0x361 PUSH1 0x4 DUP1 CALLDATASIZE SUB DUP2 ADD SWAP1 PUSH2 0x35C SWAP2 SWAP1 PUSH2 0xD5E JUMP JUMPDEST PUSH2 0xA84 JUMP JUMPDEST PUSH1 0x40 MLOAD PUSH2 0x370 SWAP4 SWAP3 SWAP2 SWAP1 PUSH2 0xCCC JUMP JUMPDEST PUSH1 0x40 MLOAD DUP1 SWAP2 SUB SWAP1 RETURN JUMPDEST PUSH0 SELFBALANCE SWAP1 POP SWAP1 JUMP JUMPDEST PUSH0 PUSH1 0x20 MSTORE DUP1 PUSH0 MSTORE PUSH1 0x40 PUSH0 KECCAK256 PUSH0 SWAP2 POP SWAP1 POP DUP1 PUSH0 ADD PUSH0 SWAP1 SLOAD SWAP1 PUSH2 0x100 EXP SWAP1 DIV PUSH20 0xFFFFFFFFFFFFFFFFFFFFFFFFFFFFFFFFFFFFFFFF AND SWAP1 DUP1 PUSH1 0x1 ADD SLOAD SWAP1 DUP1 PUSH1 0x2 ADD SLOAD SWAP1 POP DUP4 JUMP JUMPDEST PUSH0 PUSH1 0x2 PUSH0 DUP4 PUSH20 0xFFFFFFFFFFFFFFFFFFFFFFFFFFFFFFFFFFFFFFFF AND PUSH20 0xFFFFFFFFFFFFFFFFFFFFFFFFFFFFFFFFFFFFFFFF AND DUP2 MSTORE PUSH1 0x20 ADD SWAP1 DUP2 MSTORE PUSH1 0x20 ADD PUSH0 KECCAK256 PUSH0 SWAP1 SLOAD SWAP1 PUSH2 0x100 EXP SWAP1 DIV PUSH1 0xFF AND SWAP1 POP SWAP2 SWAP1 POP JUMP JUMPDEST PUSH2 0x41F CALLER PUSH2 0x3C4 JUMP JUMPDEST PUSH2 0x45E JUMPI PUSH1 0x40 MLOAD PUSH32 0x8C379A000000000000000000000000000000000000000000000000000000000 DUP2 MSTORE PUSH1 0x4 ADD PUSH2 0x455 SWAP1 PUSH2 0xE23 JUMP JUMPDEST PUSH1 0x40 MLOAD DUP1 SWAP2 SUB SWAP1 REVERT JUMPDEST SELFBALANCE DUP2 GT ISZERO PUSH2 0x4A1 JUMPI PUSH1 0x40 MLOAD PUSH32 0x8C379A000000000000000000000000000000000000000000000000000000000 DUP2 MSTORE PUSH1 0x4 ADD PUSH2 0x498 SWAP1 PUSH2 0xE8B JUMP JUMPDEST PUSH1 0x40 MLOAD DUP1 SWAP2 SUB SWAP1 REVERT JUMPDEST CALLER PUSH20 0xFFFFFFFFFFFFFFFFFFFFFFFFFFFFFFFFFFFFFFFF AND PUSH2 0x8FC DUP3 SWAP1 DUP2 ISZERO MUL SWAP1 PUSH1 0x40 MLOAD PUSH0 PUSH1 0x40 MLOAD DUP1 DUP4 SUB DUP2 DUP6 DUP9 DUP9 CALL SWAP4 POP POP POP POP ISZERO DUP1 ISZERO PUSH2 0x4E4 JUMPI RETURNDATASIZE PUSH0 DUP1 RETURNDATACOPY RETURNDATASIZE PUSH0 REVERT JUMPDEST POP CALLER PUSH20 0xFFFFFFFFFFFFFFFFFFFFFFFFFFFFFFFFFFFFFFFF AND PUSH32 0x7FCF532C15F0A6DB0BD6D0E038BEA71D30D808C7D98CB3BF7268A95BF5081B65 DUP3 PUSH1 0x40 MLOAD PUSH2 0x52B SWAP2 SWAP1 PUSH2 0xC1B JUMP JUMPDEST PUSH1 0x40 MLOAD DUP1 SWAP2 SUB SWAP1 LOG2 POP JUMP JUMPDEST PUSH1 0x1 PUSH0 SWAP1 SLOAD SWAP1 PUSH2 0x100 EXP SWAP1 DIV PUSH20 0xFFFFFFFFFFFFFFFFFFFFFFFFFFFFFFFFFFFFFFFF AND PUSH20 0xFFFFFFFFFFFFFFFFFFFFFFFFFFFFFFFFFFFFFFFF AND CALLER PUSH20 0xFFFFFFFFFFFFFFFFFFFFFFFFFFFFFFFFFFFFFFFF AND EQ PUSH2 0x5C5 JUMPI PUSH1 0x40 MLOAD PUSH32 0x8C379A000000000000000000000000000000000000000000000000000000000 DUP2 MSTORE PUSH1 0x4 ADD PUSH2 0x5BC SWAP1 PUSH2 0xEF3 JUMP JUMPDEST PUSH1 0x40 MLOAD DUP1 SWAP2 SUB SWAP1 REVERT JUMPDEST PUSH1 0x1 PUSH1 0x2 PUSH0 DUP4 PUSH20 0xFFFFFFFFFFFFFFFFFFFFFFFFFFFFFFFFFFFFFFFF AND PUSH20 0xFFFFFFFFFFFFFFFFFFFFFFFFFFFFFFFFFFFFFFFF AND DUP2 MSTORE PUSH1 0x20 ADD SWAP1 DUP2 MSTORE PUSH1 0x20 ADD PUSH0 KECCAK256 PUSH0 PUSH2 0x100 EXP DUP2 SLOAD DUP2 PUSH1 0xFF MUL NOT AND SWAP1 DUP4 ISZERO ISZERO MUL OR SWAP1 SSTORE POP POP JUMP JUMPDEST PUSH1 0x1 PUSH0 SWAP1 SLOAD SWAP1 PUSH2 0x100 EXP SWAP1 DIV PUSH20 0xFFFFFFFFFFFFFFFFFFFFFFFFFFFFFFFFFFFFFFFF AND DUP2 JUMP JUMPDEST PUSH1 0x2 PUSH1 0x20 MSTORE DUP1 PUSH0 MSTORE PUSH1 0x40 PUSH0 KECCAK256 PUSH0 SWAP2 POP SLOAD SWAP1 PUSH2 0x100 EXP SWAP1 DIV PUSH1 0xFF AND DUP2 JUMP JUMPDEST PUSH0 DUP1 PUSH0 DUP1 PUSH0 DUP6 PUSH20 0xFFFFFFFFFFFFFFFFFFFFFFFFFFFFFFFFFFFFFFFF AND PUSH20 0xFFFFFFFFFFFFFFFFFFFFFFFFFFFFFFFFFFFFFFFF AND DUP2 MSTORE PUSH1 0x20 ADD SWAP1 DUP2 MSTORE PUSH1 0x20 ADD PUSH0 KECCAK256 PUSH1 0x40 MLOAD DUP1 PUSH1 0x60 ADD PUSH1 0x40 MSTORE SWAP1 DUP2 PUSH0 DUP3 ADD PUSH0 SWAP1 SLOAD SWAP1 PUSH2 0x100 EXP SWAP1 DIV PUSH20 0xFFFFFFFFFFFFFFFFFFFFFFFFFFFFFFFFFFFFFFFF AND PUSH20 0xFFFFFFFFFFFFFFFFFFFFFFFFFFFFFFFFFFFFFFFF AND PUSH20 0xFFFFFFFFFFFFFFFFFFFFFFFFFFFFFFFFFFFFFFFF AND DUP2 MSTORE PUSH1 0x20 ADD PUSH1 0x1 DUP3 ADD SLOAD DUP2 MSTORE PUSH1 0x20 ADD PUSH1 0x2 DUP3 ADD SLOAD DUP2 MSTORE POP POP SWAP1 POP DUP1 PUSH1 0x20 ADD MLOAD DUP2 PUSH1 0x40 ADD MLOAD SWAP3 POP SWAP3 POP POP SWAP2 POP SWAP2 JUMP JUMPDEST PUSH0 PUSH1 0x3 DUP1 SLOAD SWAP1 POP SWAP1 POP SWAP1 JUMP JUMPDEST PUSH1 0x1 PUSH0 SWAP1 SLOAD SWAP1 PUSH2 0x100 EXP SWAP1 DIV PUSH20 0xFFFFFFFFFFFFFFFFFFFFFFFFFFFFFFFFFFFFFFFF AND PUSH20 0xFFFFFFFFFFFFFFFFFFFFFFFFFFFFFFFFFFFFFFFF AND CALLER PUSH20 0xFFFFFFFFFFFFFFFFFFFFFFFFFFFFFFFFFFFFFFFF AND EQ PUSH2 0x7C2 JUMPI PUSH1 0x40 MLOAD PUSH32 0x8C379A000000000000000000000000000000000000000000000000000000000 DUP2 MSTORE PUSH1 0x4 ADD PUSH2 0x7B9 SWAP1 PUSH2 0xEF3 JUMP JUMPDEST PUSH1 0x40 MLOAD DUP1 SWAP2 SUB SWAP1 REVERT JUMPDEST PUSH0 PUSH1 0x2 PUSH0 DUP4 PUSH20 0xFFFFFFFFFFFFFFFFFFFFFFFFFFFFFFFFFFFFFFFF AND PUSH20 0xFFFFFFFFFFFFFFFFFFFFFFFFFFFFFFFFFFFFFFFF AND DUP2 MSTORE PUSH1 0x20 ADD SWAP1 DUP2 MSTORE PUSH1 0x20 ADD PUSH0 KECCAK256 PUSH0 PUSH2 0x100 EXP DUP2 SLOAD DUP2 PUSH1 0xFF MUL NOT AND SWAP1 DUP4 ISZERO ISZERO MUL OR SWAP1 SSTORE POP POP JUMP JUMPDEST PUSH1 0x4 SLOAD DUP2 JUMP JUMPDEST PUSH0 CALLVALUE GT PUSH2 0x861 JUMPI PUSH1 0x40 MLOAD PUSH32 0x8C379A000000000000000000000000000000000000000000000000000000000 DUP2 MSTORE PUSH1 0x4 ADD PUSH2 0x858 SWAP1 PUSH2 0xF5B JUMP JUMPDEST PUSH1 0x40 MLOAD DUP1 SWAP2 SUB SWAP1 REVERT JUMPDEST PUSH1 0x3 PUSH1 0x40 MLOAD DUP1 PUSH1 0x60 ADD PUSH1 0x40 MSTORE DUP1 CALLER PUSH20 0xFFFFFFFFFFFFFFFFFFFFFFFFFFFFFFFFFFFFFFFF AND DUP2 MSTORE PUSH1 0x20 ADD CALLVALUE DUP2 MSTORE PUSH1 0x20 ADD TIMESTAMP DUP2 MSTORE POP SWAP1 DUP1 PUSH1 0x1 DUP2 SLOAD ADD DUP1 DUP3 SSTORE DUP1 SWAP2 POP POP PUSH1 0x1 SWAP1 SUB SWAP1 PUSH0 MSTORE PUSH1 0x20 PUSH0 KECCAK256 SWAP1 PUSH1 0x3 MUL ADD PUSH0 SWAP1 SWAP2 SWAP1 SWAP2 SWAP1 SWAP2 POP PUSH0 DUP3 ADD MLOAD DUP2 PUSH0 ADD PUSH0 PUSH2 0x100 EXP DUP2 SLOAD DUP2 PUSH20 0xFFFFFFFFFFFFFFFFFFFFFFFFFFFFFFFFFFFFFFFF MUL NOT AND SWAP1 DUP4 PUSH20 0xFFFFFFFFFFFFFFFFFFFFFFFFFFFFFFFFFFFFFFFF AND MUL OR SWAP1 SSTORE POP PUSH1 0x20 DUP3 ADD MLOAD DUP2 PUSH1 0x1 ADD SSTORE PUSH1 0x40 DUP3 ADD MLOAD DUP2 PUSH1 0x2 ADD SSTORE POP POP CALLVALUE PUSH1 0x4 PUSH0 DUP3 DUP3 SLOAD PUSH2 0x925 SWAP2 SWAP1 PUSH2 0xFA6 JUMP JUMPDEST SWAP3 POP POP DUP2 SWAP1 SSTORE POP PUSH2 0x936 CALLER CALLVALUE PUSH2 0xAD8 JUMP JUMPDEST CALLER PUSH20 0xFFFFFFFFFFFFFFFFFFFFFFFFFFFFFFFFFFFFFFFF AND PUSH32 0x4B0304AB2F313234B1CEA012339C8F8C3BF2C8BB357D81A579CFDB35D2E3D030 CALLVALUE TIMESTAMP PUSH1 0x40 MLOAD PUSH2 0x97E SWAP3 SWAP2 SWAP1 PUSH2 0xDA2 JUMP JUMPDEST PUSH1 0x40 MLOAD DUP1 SWAP2 SUB SWAP1 LOG2 JUMP JUMPDEST PUSH0 DUP1 PUSH0 PUSH1 0x3 DUP1 SLOAD SWAP1 POP DUP5 LT PUSH2 0x9D2 JUMPI PUSH1 0x40 MLOAD PUSH32 0x8C379A000000000000000000000000000000000000000000000000000000000 DUP2 MSTORE PUSH1 0x4 ADD PUSH2 0x9C9 SWAP1 PUSH2 0x1023 JUMP JUMPDEST PUSH1 0x40 MLOAD DUP1 SWAP2 SUB SWAP1 REVERT JUMPDEST PUSH0 PUSH1 0x3 DUP6 DUP2 SLOAD DUP2 LT PUSH2 0x9E7 JUMPI PUSH2 0x9E6 PUSH2 0x1041 JUMP JUMPDEST JUMPDEST SWAP1 PUSH0 MSTORE PUSH1 0x20 PUSH0 KECCAK256 SWAP1 PUSH1 0x3 MUL ADD PUSH1 0x40 MLOAD DUP1 PUSH1 0x60 ADD PUSH1 0x40 MSTORE SWAP1 DUP2 PUSH0 DUP3 ADD PUSH0 SWAP1 SLOAD SWAP1 PUSH2 0x100 EXP SWAP1 DIV PUSH20 0xFFFFFFFFFFFFFFFFFFFFFFFFFFFFFFFFFFFFFFFF AND PUSH20 0xFFFFFFFFFFFFFFFFFFFFFFFFFFFFFFFFFFFFFFFF AND PUSH20 0xFFFFFFFFFFFFFFFFFFFFFFFFFFFFFFFFFFFFFFFF AND DUP2 MSTORE PUSH1 0x20 ADD PUSH1 0x1 DUP3 ADD SLOAD DUP2 MSTORE PUSH1 0x20 ADD PUSH1 0x2 DUP3 ADD SLOAD DUP2 MSTORE POP POP SWAP1 POP DUP1 PUSH0 ADD MLOAD DUP2 PUSH1 0x20 ADD MLOAD DUP3 PUSH1 0x40 ADD MLOAD SWAP4 POP SWAP4 POP SWAP4 POP POP SWAP2 SWAP4 SWAP1 SWAP3 POP JUMP JUMPDEST PUSH1 0x3 DUP2 DUP2 SLOAD DUP2 LT PUSH2 0xA93 JUMPI PUSH0 DUP1 REVERT JUMPDEST SWAP1 PUSH0 MSTORE PUSH1 0x20 PUSH0 KECCAK256 SWAP1 PUSH1 0x3 MUL ADD PUSH0 SWAP2 POP SWAP1 POP DUP1 PUSH0 ADD PUSH0 SWAP1 SLOAD SWAP1 PUSH2 0x100 EXP SWAP1 DIV PUSH20 0xFFFFFFFFFFFFFFFFFFFFFFFFFFFFFFFFFFFFFFFF AND SWAP1 DUP1 PUSH1 0x1 ADD SLOAD SWAP1 DUP1 PUSH1 0x2 ADD SLOAD SWAP1 POP DUP4 JUMP JUMPDEST DUP2 PUSH0 DUP1 DUP5 PUSH20 0xFFFFFFFFFFFFFFFFFFFFFFFFFFFFFFFFFFFFFFFF AND PUSH20 0xFFFFFFFFFFFFFFFFFFFFFFFFFFFFFFFFFFFFFFFF AND DUP2 MSTORE PUSH1 0x20 ADD SWAP1 DUP2 MSTORE PUSH1 0x20 ADD PUSH0 KECCAK256 PUSH0 ADD PUSH0 PUSH2 0x100 EXP DUP2 SLOAD DUP2 PUSH20 0xFFFFFFFFFFFFFFFFFFFFFFFFFFFFFFFFFFFFFFFF MUL NOT AND SWAP1 DUP4 PUSH20 0xFFFFFFFFFFFFFFFFFFFFFFFFFFFFFFFFFFFFFFFF AND MUL OR SWAP1 SSTORE POP DUP1 PUSH0 DUP1 DUP5 PUSH20 0xFFFFFFFFFFFFFFFFFFFFFFFFFFFFFFFFFFFFFFFF AND PUSH20 0xFFFFFFFFFFFFFFFFFFFFFFFFFFFFFFFFFFFFFFFF AND DUP2 MSTORE PUSH1 0x20 ADD SWAP1 DUP2 MSTORE PUSH1 0x20 ADD PUSH0 KECCAK256 PUSH1 0x1 ADD PUSH0 DUP3 DUP3 SLOAD PUSH2 0xBA2 SWAP2 SWAP1 PUSH2 0xFA6 JUMP JUMPDEST SWAP3 POP POP DUP2 SWAP1 SSTORE POP PUSH1 0x1 PUSH0 DUP1 DUP5 PUSH20 0xFFFFFFFFFFFFFFFFFFFFFFFFFFFFFFFFFFFFFFFF AND PUSH20 0xFFFFFFFFFFFFFFFFFFFFFFFFFFFFFFFFFFFFFFFF AND DUP2 MSTORE PUSH1 0x20 ADD SWAP1 DUP2 MSTORE PUSH1 0x20 ADD PUSH0 KECCAK256 PUSH1 0x2 ADD PUSH0 DUP3 DUP3 SLOAD PUSH2 0xBF8 SWAP2 SWAP1 PUSH2 0xFA6 JUMP JUMPDEST SWAP3 POP POP DUP2 SWAP1 SSTORE POP POP POP JUMP JUMPDEST PUSH0 DUP2 SWAP1 POP SWAP2 SWAP1 POP JUMP JUMPDEST PUSH2 0xC15 DUP2 PUSH2 0xC03 JUMP JUMPDEST DUP3 MSTORE POP POP JUMP JUMPDEST PUSH0 PUSH1 0x20 DUP3 ADD SWAP1 POP PUSH2 0xC2E PUSH0 DUP4 ADD DUP5 PUSH2 0xC0C JUMP JUMPDEST SWAP3 SWAP2 POP POP JUMP JUMPDEST PUSH0 DUP1 REVERT JUMPDEST PUSH0 PUSH20 0xFFFFFFFFFFFFFFFFFFFFFFFFFFFFFFFFFFFFFFFF DUP3 AND SWAP1 POP SWAP2 SWAP1 POP JUMP JUMPDEST PUSH0 PUSH2 0xC61 DUP3 PUSH2 0xC38 JUMP JUMPDEST SWAP1 POP SWAP2 SWAP1 POP JUMP JUMPDEST PUSH2 0xC71 DUP2 PUSH2 0xC57 JUMP JUMPDEST DUP2 EQ PUSH2 0xC7B JUMPI PUSH0 DUP1 REVERT JUMPDEST POP JUMP JUMPDEST PUSH0 DUP2 CALLDATALOAD SWAP1 POP PUSH2 0xC8C DUP2 PUSH2 0xC68 JUMP JUMPDEST SWAP3 SWAP2 POP POP JUMP JUMPDEST PUSH0 PUSH1 0x20 DUP3 DUP5 SUB SLT ISZERO PUSH2 0xCA7 JUMPI PUSH2 0xCA6 PUSH2 0xC34 JUMP JUMPDEST JUMPDEST PUSH0 PUSH2 0xCB4 DUP5 DUP3 DUP6 ADD PUSH2 0xC7E JUMP JUMPDEST SWAP2 POP POP SWAP3 SWAP2 POP POP JUMP JUMPDEST PUSH2 0xCC6 DUP2 PUSH2 0xC57 JUMP JUMPDEST DUP3 MSTORE POP POP JUMP JUMPDEST PUSH0 PUSH1 0x60 DUP3 ADD SWAP1 POP PUSH2 0xCDF PUSH0 DUP4 ADD DUP7 PUSH2 0xCBD JUMP JUMPDEST PUSH2 0xCEC PUSH1 0x20 DUP4 ADD DUP6 PUSH2 0xC0C JUMP JUMPDEST PUSH2 0xCF9 PUSH1 0x40 DUP4 ADD DUP5 PUSH2 0xC0C JUMP JUMPDEST SWAP5 SWAP4 POP POP POP POP JUMP JUMPDEST PUSH0 DUP2 ISZERO ISZERO SWAP1 POP SWAP2 SWAP1 POP JUMP JUMPDEST PUSH2 0xD15 DUP2 PUSH2 0xD01 JUMP JUMPDEST DUP3 MSTORE POP POP JUMP JUMPDEST PUSH0 PUSH1 0x20 DUP3 ADD SWAP1 POP PUSH2 0xD2E PUSH0 DUP4 ADD DUP5 PUSH2 0xD0C JUMP JUMPDEST SWAP3 SWAP2 POP POP JUMP JUMPDEST PUSH2 0xD3D DUP2 PUSH2 0xC03 JUMP JUMPDEST DUP2 EQ PUSH2 0xD47 JUMPI PUSH0 DUP1 REVERT JUMPDEST POP JUMP JUMPDEST PUSH0 DUP2 CALLDATALOAD SWAP1 POP PUSH2 0xD58 DUP2 PUSH2 0xD34 JUMP JUMPDEST SWAP3 SWAP2 POP POP JUMP JUMPDEST PUSH0 PUSH1 0x20 DUP3 DUP5 SUB SLT ISZERO PUSH2 0xD73 JUMPI PUSH2 0xD72 PUSH2 0xC34 JUMP JUMPDEST JUMPDEST PUSH0 PUSH2 0xD80 DUP5 DUP3 DUP6 ADD PUSH2 0xD4A JUMP JUMPDEST SWAP2 POP POP SWAP3 SWAP2 POP POP JUMP JUMPDEST PUSH0 PUSH1 0x20 DUP3 ADD SWAP1 POP PUSH2 0xD9C PUSH0 DUP4 ADD DUP5 PUSH2 0xCBD JUMP JUMPDEST SWAP3 SWAP2 POP POP JUMP JUMPDEST PUSH0 PUSH1 0x40 DUP3 ADD SWAP1 POP PUSH2 0xDB5 PUSH0 DUP4 ADD DUP6 PUSH2 0xC0C JUMP JUMPDEST PUSH2 0xDC2 PUSH1 0x20 DUP4 ADD DUP5 PUSH2 0xC0C JUMP JUMPDEST SWAP4 SWAP3 POP POP POP JUMP JUMPDEST PUSH0 DUP3 DUP3 MSTORE PUSH1 0x20 DUP3 ADD SWAP1 POP SWAP3 SWAP2 POP POP JUMP JUMPDEST PUSH32 0x4E474F206E6F7420617070726F76656400000000000000000000000000000000 PUSH0 DUP3 ADD MSTORE POP JUMP JUMPDEST PUSH0 PUSH2 0xE0D PUSH1 0x10 DUP4 PUSH2 0xDC9 JUMP JUMPDEST SWAP2 POP PUSH2 0xE18 DUP3 PUSH2 0xDD9 JUMP JUMPDEST PUSH1 0x20 DUP3 ADD SWAP1 POP SWAP2 SWAP1 POP JUMP JUMPDEST PUSH0 PUSH1 0x20 DUP3 ADD SWAP1 POP DUP2 DUP2 SUB PUSH0 DUP4 ADD MSTORE PUSH2 0xE3A DUP2 PUSH2 0xE01 JUMP JUMPDEST SWAP1 POP SWAP2 SWAP1 POP JUMP JUMPDEST PUSH32 0x496E73756666696369656E742062616C616E6365000000000000000000000000 PUSH0 DUP3 ADD MSTORE POP JUMP JUMPDEST PUSH0 PUSH2 0xE75 PUSH1 0x14 DUP4 PUSH2 0xDC9 JUMP JUMPDEST SWAP2 POP PUSH2 0xE80 DUP3 PUSH2 0xE41 JUMP JUMPDEST PUSH1 0x20 DUP3 ADD SWAP1 POP SWAP2 SWAP1 POP JUMP JUMPDEST PUSH0 PUSH1 0x20 DUP3 ADD SWAP1 POP DUP2 DUP2 SUB PUSH0 DUP4 ADD MSTORE PUSH2 0xEA2 DUP2 PUSH2 0xE69 JUMP JUMPDEST SWAP1 POP SWAP2 SWAP1 POP JUMP JUMPDEST PUSH32 0x4E6F7420746865206F776E657200000000000000000000000000000000000000 PUSH0 DUP3 ADD MSTORE POP JUMP JUMPDEST PUSH0 PUSH2 0xEDD PUSH1 0xD DUP4 PUSH2 0xDC9 JUMP JUMPDEST SWAP2 POP PUSH2 0xEE8 DUP3 PUSH2 0xEA9 JUMP JUMPDEST PUSH1 0x20 DUP3 ADD SWAP1 POP SWAP2 SWAP1 POP JUMP JUMPDEST PUSH0 PUSH1 0x20 DUP3 ADD SWAP1 POP DUP2 DUP2 SUB PUSH0 DUP4 ADD MSTORE PUSH2 0xF0A DUP2 PUSH2 0xED1 JUMP JUMPDEST SWAP1 POP SWAP2 SWAP1 POP JUMP JUMPDEST PUSH32 0x446F6E6174696F6E206D7573742062652067726561746572207468616E203000 PUSH0 DUP3 ADD MSTORE POP JUMP JUMPDEST PUSH0 PUSH2 0xF45 PUSH1 0x1F DUP4 PUSH2 0xDC9 JUMP JUMPDEST SWAP2 POP PUSH2 0xF50 DUP3 PUSH2 0xF11 JUMP JUMPDEST PUSH1 0x20 DUP3 ADD SWAP1 POP SWAP2 SWAP1 POP JUMP JUMPDEST PUSH0 PUSH1 0x20 DUP3 ADD SWAP1 POP DUP2 DUP2 SUB PUSH0 DUP4 ADD MSTORE PUSH2 0xF72 DUP2 PUSH2 0xF39 JUMP JUMPDEST SWAP1 POP SWAP2 SWAP1 POP JUMP JUMPDEST PUSH32 0x4E487B7100000000000000000000000000000000000000000000000000000000 PUSH0 MSTORE PUSH1 0x11 PUSH1 0x4 MSTORE PUSH1 0x24 PUSH0 REVERT JUMPDEST PUSH0 PUSH2 0xFB0 DUP3 PUSH2 0xC03 JUMP JUMPDEST SWAP2 POP PUSH2 0xFBB DUP4 PUSH2 0xC03 JUMP JUMPDEST SWAP3 POP DUP3 DUP3 ADD SWAP1 POP DUP1 DUP3 GT ISZERO PUSH2 0xFD3 JUMPI PUSH2 0xFD2 PUSH2 0xF79 JUMP JUMPDEST JUMPDEST SWAP3 SWAP2 POP POP JUMP JUMPDEST PUSH32 0x496E76616C696420696E64657800000000000000000000000000000000000000 PUSH0 DUP3 ADD MSTORE POP JUMP JUMPDEST PUSH0 PUSH2 0x100D PUSH1 0xD DUP4 PUSH2 0xDC9 JUMP JUMPDEST SWAP2 POP PUSH2 0x1018 DUP3 PUSH2 0xFD9 JUMP JUMPDEST PUSH1 0x20 DUP3 ADD SWAP1 POP SWAP2 SWAP1 POP JUMP JUMPDEST PUSH0 PUSH1 0x20 DUP3 ADD SWAP1 POP DUP2 DUP2 SUB PUSH0 DUP4 ADD MSTORE PUSH2 0x103A DUP2 PUSH2 0x1001 JUMP JUMPDEST SWAP1 POP SWAP2 SWAP1 POP JUMP JUMPDEST PUSH32 0x4E487B7100000000000000000000000000000000000000000000000000000000 PUSH0 MSTORE PUSH1 0x32 PUSH1 0x4 MSTORE PUSH1 0x24 PUSH0 REVERT INVALID LOG2 PUSH5 0x6970667358 0x22 SLT KECCAK256 PUSH28 0x6FA7E1EE8EA4E3870D59153A6A2CF52A4A5F2C9C22CC7868F277BD32 GAS 0xE3 0xB7 PUSH5 0x736F6C6343 STOP ADDMOD BYTE STOP CALLER "
				},
				"gasEstimates": {
					"creation": {
						"codeDepositCost": "852000",
						"executionCost": "25153",
						"totalCost": "877153"
					},
					"external": {
						"addNGO(address)": "27017",
						"approvedNGOs(address)": "2922",
						"donate()": "infinite",
						"donations(uint256)": "infinite",
						"donorData(address)": "infinite",
						"getBalance()": "358",
						"getDonation(uint256)": "infinite",
						"getDonationsCount()": "2485",
						"getDonorInfo(address)": "infinite",
						"isNGOApproved(address)": "2938",
						"owner()": "2575",
						"removeNGO(address)": "27038",
						"totalDonations()": "2447",
						"withdraw(uint256)": "infinite"
					}
				},
				"methodIdentifiers": {
					"addNGO(address)": "6de1587e",
					"approvedNGOs(address)": "ac4c7268",
					"donate()": "ed88c68e",
					"donations(uint256)": "f8626af8",
					"donorData(address)": "2941b0c3",
					"getBalance()": "12065fe0",
					"getDonation(uint256)": "ef07a81f",
					"getDonationsCount()": "c93527d8",
					"getDonorInfo(address)": "c46a60a5",
					"isNGOApproved(address)": "2d5e40e2",
					"owner()": "8da5cb5b",
					"removeNGO(address)": "d22c7f19",
					"totalDonations()": "de2ed893",
					"withdraw(uint256)": "2e1a7d4d"
				}
			},
			"storageLayout": {
				"storage": [
					{
						"astId": 222,
						"contract": "contracts/DonationVerifier.sol:DonationVerifier",
						"label": "donorData",
						"offset": 0,
						"slot": "0",
						"type": "t_mapping(t_address,t_struct(Donor)217_storage)"
					},
					{
						"astId": 3,
						"contract": "contracts/DonationVerifier.sol:DonationVerifier",
						"label": "owner",
						"offset": 0,
						"slot": "1",
						"type": "t_address"
					},
					{
						"astId": 284,
						"contract": "contracts/DonationVerifier.sol:DonationVerifier",
						"label": "approvedNGOs",
						"offset": 0,
						"slot": "2",
						"type": "t_mapping(t_address,t_bool)"
					},
					{
						"astId": 49,
						"contract": "contracts/DonationVerifier.sol:DonationVerifier",
						"label": "donations",
						"offset": 0,
						"slot": "3",
						"type": "t_array(t_struct(Donation)45_storage)dyn_storage"
					},
					{
						"astId": 51,
						"contract": "contracts/DonationVerifier.sol:DonationVerifier",
						"label": "totalDonations",
						"offset": 0,
						"slot": "4",
						"type": "t_uint256"
					}
				],
				"types": {
					"t_address": {
						"encoding": "inplace",
						"label": "address",
						"numberOfBytes": "20"
					},
					"t_array(t_struct(Donation)45_storage)dyn_storage": {
						"base": "t_struct(Donation)45_storage",
						"encoding": "dynamic_array",
						"label": "struct DonationVerifier.Donation[]",
						"numberOfBytes": "32"
					},
					"t_bool": {
						"encoding": "inplace",
						"label": "bool",
						"numberOfBytes": "1"
					},
					"t_mapping(t_address,t_bool)": {
						"encoding": "mapping",
						"key": "t_address",
						"label": "mapping(address => bool)",
						"numberOfBytes": "32",
						"value": "t_bool"
					},
					"t_mapping(t_address,t_struct(Donor)217_storage)": {
						"encoding": "mapping",
						"key": "t_address",
						"label": "mapping(address => struct DonorRegistry.Donor)",
						"numberOfBytes": "32",
						"value": "t_struct(Donor)217_storage"
					},
					"t_struct(Donation)45_storage": {
						"encoding": "inplace",
						"label": "struct DonationVerifier.Donation",
						"members": [
							{
								"astId": 40,
								"contract": "contracts/DonationVerifier.sol:DonationVerifier",
								"label": "donor",
								"offset": 0,
								"slot": "0",
								"type": "t_address"
							},
							{
								"astId": 42,
								"contract": "contracts/DonationVerifier.sol:DonationVerifier",
								"label": "amount",
								"offset": 0,
								"slot": "1",
								"type": "t_uint256"
							},
							{
								"astId": 44,
								"contract": "contracts/DonationVerifier.sol:DonationVerifier",
								"label": "timestamp",
								"offset": 0,
								"slot": "2",
								"type": "t_uint256"
							}
						],
						"numberOfBytes": "96"
					},
					"t_struct(Donor)217_storage": {
						"encoding": "inplace",
						"label": "struct DonorRegistry.Donor",
						"members": [
							{
								"astId": 212,
								"contract": "contracts/DonationVerifier.sol:DonationVerifier",
								"label": "donor",
								"offset": 0,
								"slot": "0",
								"type": "t_address"
							},
							{
								"astId": 214,
								"contract": "contracts/DonationVerifier.sol:DonationVerifier",
								"label": "totalDonated",
								"offset": 0,
								"slot": "1",
								"type": "t_uint256"
							},
							{
								"astId": 216,
								"contract": "contracts/DonationVerifier.sol:DonationVerifier",
								"label": "donationsCount",
								"offset": 0,
								"slot": "2",
								"type": "t_uint256"
							}
						],
						"numberOfBytes": "96"
					},
					"t_uint256": {
						"encoding": "inplace",
						"label": "uint256",
						"numberOfBytes": "32"
					}
				}
			},
			"userdoc": {
				"kind": "user",
				"methods": {},
				"version": 1
			}
		}
	}
}